{
  "contractName": "BlackList",
  "abi": [
    {
      "anonymous": false,
      "inputs": [
        {
          "indexed": false,
          "internalType": "address",
          "name": "_user",
          "type": "address"
        }
      ],
      "name": "AddedToBlackList",
      "type": "event"
    },
    {
      "anonymous": false,
      "inputs": [
        {
          "indexed": false,
          "internalType": "address",
          "name": "_user",
          "type": "address"
        }
      ],
      "name": "RemovedFromBlackList",
      "type": "event"
    },
    {
      "inputs": [
        {
          "internalType": "address",
          "name": "",
          "type": "address"
        }
      ],
      "name": "blackList",
      "outputs": [
        {
          "internalType": "bool",
          "name": "",
          "type": "bool"
        }
      ],
      "stateMutability": "view",
      "type": "function"
    }
  ],
  "bytecode": "0x608060405234801561001057600080fd5b5060c58061001f6000396000f3fe6080604052348015600f57600080fd5b506004361060285760003560e01c80634838d16514602d575b600080fd5b604d60383660046061565b60006020819052908152604090205460ff1681565b604051901515815260200160405180910390f35b600060208284031215607257600080fd5b81356001600160a01b0381168114608857600080fd5b939250505056fea26469706673582212203048421b862f93d6ec5f8a023d1d69c44028ee4e5b0ca8dbefea1870bf97fb1c64736f6c63430008070033",
  "immutableReferences": {},
  "source": "// SPDX-License-Identifier: MIT\npragma solidity ^0.8.7;\n\n/**\n* @title Blacklist contract for ERC20Token Contract\n* @author The Systango Team\n*/\n\ncontract BlackList {\n\n    /** \n    * @dev Mapping between the address and boolean for blacklisting \n    */\n    mapping (address => bool) public blackList;\n\n    /** \n    * @dev Event to trigger the addition of address to blacklist mapping \n    */\n    event AddedToBlackList(address _user);\n\n    /** \n    * @dev Event to trigger the removal of address from blacklist mapping \n    */\n    event RemovedFromBlackList(address _user);\n    \n    /**\n    * @dev This function would add an address to the blacklist mapping\n    * @param user The account to be added to blacklist\n    * @return true if given address `user` successfully added in blacklist mapping\n    */\n    function _addToBlackList(address user) internal virtual returns (bool) {\n        blackList[user] = true;\n        emit AddedToBlackList(user);\n        return true;\n    }\n\n    /**\n    * @dev This function would remove an address from the blacklist mapping\n    * @param user The account to be removed from blacklist\n    * @return true if given address `user` successfully removed from blacklist mapping\n    */\n    function _removeFromBlackList(address user) internal virtual returns (bool) {\n        blackList[user] = false;\n        delete blackList[user];\n        emit RemovedFromBlackList(user);\n        return true;\n    }\n\n    /** \n    * @dev This function would check an address from the blacklist mapping\n    * @param _user The account to be checked from blacklist mapping\n    * @return true or false if given address `user` in blacklist mapping or not in blacklist mapping respectively\n    */\n    function _isBlackListUser(address _user) internal virtual returns (bool){\n        return blackList[_user];\n    }\n\n    /** \n    * @dev Modifier to check address from the blacklist mapping\n    * @param _user The account to be checked from blacklist mapping\n    */\n    modifier whenNotBlackListedUser(address _user) {\n        require(!_isBlackListUser(_user), \"ERC20Token: This address is in blacklist\");\n        _;\n    }\n}\n",
  "sourcePath": "/home/ubox141/Desktop/Blockchain Work'/ERC20-BoilerPlate/contracts/BlackList.sol",
  "compiler": {
    "name": "solc",
    "version": "0.8.7+commit.e28d00a7.Emscripten.clang"
  },
  "schemaVersion": "3.4.5",
  "updatedAt": "2022-11-11T10:35:37.764Z",
  "devdoc": {
    "author": "The Systango Team",
    "events": {
      "AddedToBlackList(address)": {
        "details": "Event to trigger the addition of address to blacklist mapping "
      },
      "RemovedFromBlackList(address)": {
        "details": "Event to trigger the removal of address from blacklist mapping "
      }
    },
    "kind": "dev",
    "methods": {},
    "stateVariables": {
      "blackList": {
        "details": "Mapping between the address and boolean for blacklisting "
      }
    },
    "title": "Blacklist contract for ERC20Token Contract",
    "version": 1
  },
  "userdoc": {
    "kind": "user",
    "methods": {},
    "version": 1
  }
}