{
  "contractName": "BlackList",
  "abi": [
    {
      "anonymous": false,
      "inputs": [
        {
          "indexed": false,
          "internalType": "address",
          "name": "_user",
          "type": "address"
        }
      ],
      "name": "AddedToBlackList",
      "type": "event"
    },
    {
      "anonymous": false,
      "inputs": [
        {
          "indexed": false,
          "internalType": "address",
          "name": "_user",
          "type": "address"
        }
      ],
      "name": "RemovedFromBlackList",
      "type": "event"
    },
    {
      "inputs": [
        {
          "internalType": "address",
          "name": "",
          "type": "address"
        }
      ],
      "name": "blackList",
      "outputs": [
        {
          "internalType": "bool",
          "name": "",
          "type": "bool"
        }
      ],
      "stateMutability": "view",
      "type": "function"
    }
  ],
  "bytecode": "0x608060405234801561001057600080fd5b5061017c806100206000396000f3fe608060405234801561001057600080fd5b506004361061002b5760003560e01c80634838d16514610030575b600080fd5b61004a60048036038101906100459190610095565b610060565b60405161005791906100d1565b60405180910390f35b60006020528060005260406000206000915054906101000a900460ff1681565b60008135905061008f8161012f565b92915050565b6000602082840312156100ab576100aa61012a565b5b60006100b984828501610080565b91505092915050565b6100cb816100fe565b82525050565b60006020820190506100e660008301846100c2565b92915050565b60006100f78261010a565b9050919050565b60008115159050919050565b600073ffffffffffffffffffffffffffffffffffffffff82169050919050565b600080fd5b610138816100ec565b811461014357600080fd5b5056fea26469706673582212208fa6957c8de33b94c0ae4e54f5e5ce3c9d4f40eaf0c7927e6f410d46edce19d364736f6c63430008070033",
  "immutableReferences": {},
  "source": "// SPDX-License-Identifier: MIT\npragma solidity ^0.8.7;\n\n/**\n* @title Blacklist contract for ERC20Token Contract\n* @author The Systango Team\n*/\n\ncontract BlackList {\n\n    /** Mapping between the address and boolean for blacklisting */\n    mapping (address => bool) public blackList;\n\n    /** Event to trigger the addition of address to blacklist mapping */\n    event AddedToBlackList(address _user);\n\n    /** Event to trigger the removal of address from blacklist mapping */\n    event RemovedFromBlackList(address _user);\n    \n    /**\n    * This function would add an address to the blacklist mapping\n    * @param user The account to be added to blacklist\n     */\n    function _addToBlackList(address user) internal virtual returns (bool) {\n        blackList[user] = true;\n        emit AddedToBlackList(user);\n        return true;\n    }\n\n    /**\n    * This function would remove an address from the blacklist mapping\n    * @param user The account to be removed from blacklist\n    */\n    function _removeFromBlackList(address user) internal virtual returns (bool) {\n        blackList[user] = false;\n        delete blackList[user];\n        emit RemovedFromBlackList(user);\n        return true;\n    }\n\n    /** This function would check an address from the blacklist mapping\n    * @param _user The account to be checked from blacklist mapping\n    */\n    function _isBlackListUser(address _user) internal virtual returns (bool){\n        return blackList[_user];\n    }\n\n    /** Modifier to check address from the blacklist mapping\n    * @param _user The account to be checked from blacklist mapping\n    */\n    modifier whenNotBlackListedUser(address _user) {\n        require(!_isBlackListUser(_user), \"ERC20Token: This address is in blacklist\");\n        _;\n    }\n}\n",
  "sourcePath": "/home/ubox141/Desktop/Blockchain Work'/ERC20-BoilerPlate/contracts/BlackList.sol",
  "compiler": {
    "name": "solc",
    "version": "0.8.7+commit.e28d00a7.Emscripten.clang"
  },
  "schemaVersion": "3.4.7",
  "updatedAt": "2022-10-13T12:46:38.238Z",
  "devdoc": {
    "author": "The Systango Team",
    "kind": "dev",
    "methods": {},
    "title": "Blacklist contract for ERC20Token Contract",
    "version": 1
  },
  "userdoc": {
    "events": {
      "AddedToBlackList(address)": {
        "notice": "Event to trigger the addition of address to blacklist mapping "
      },
      "RemovedFromBlackList(address)": {
        "notice": "Event to trigger the removal of address from blacklist mapping "
      }
    },
    "kind": "user",
    "methods": {
      "blackList(address)": {
        "notice": "Mapping between the address and boolean for blacklisting "
      }
    },
    "version": 1
  }
}