{
  "contractName": "ERC20Token",
  "abi": [
    {
      "inputs": [
        {
          "internalType": "string",
          "name": "name",
          "type": "string"
        },
        {
          "internalType": "string",
          "name": "symbol",
          "type": "string"
        },
        {
          "internalType": "uint256",
          "name": "_tokenPrice",
          "type": "uint256"
        }
      ],
      "stateMutability": "nonpayable",
      "type": "constructor"
    },
    {
      "anonymous": false,
      "inputs": [
        {
          "indexed": false,
          "internalType": "address",
          "name": "_user",
          "type": "address"
        }
      ],
      "name": "AddedToBlackList",
      "type": "event"
    },
    {
      "anonymous": false,
      "inputs": [
        {
          "indexed": true,
          "internalType": "address",
          "name": "owner",
          "type": "address"
        },
        {
          "indexed": true,
          "internalType": "address",
          "name": "spender",
          "type": "address"
        },
        {
          "indexed": false,
          "internalType": "uint256",
          "name": "value",
          "type": "uint256"
        }
      ],
      "name": "Approval",
      "type": "event"
    },
    {
      "anonymous": false,
      "inputs": [
        {
          "indexed": false,
          "internalType": "address",
          "name": "account",
          "type": "address"
        },
        {
          "indexed": false,
          "internalType": "uint256",
          "name": "amount",
          "type": "uint256"
        }
      ],
      "name": "ERC20Minted",
      "type": "event"
    },
    {
      "anonymous": false,
      "inputs": [
        {
          "indexed": false,
          "internalType": "address",
          "name": "account",
          "type": "address"
        }
      ],
      "name": "EthersWithdraw",
      "type": "event"
    },
    {
      "anonymous": false,
      "inputs": [
        {
          "indexed": true,
          "internalType": "address",
          "name": "previousOwner",
          "type": "address"
        },
        {
          "indexed": true,
          "internalType": "address",
          "name": "newOwner",
          "type": "address"
        }
      ],
      "name": "OwnershipTransferred",
      "type": "event"
    },
    {
      "anonymous": false,
      "inputs": [
        {
          "indexed": false,
          "internalType": "address",
          "name": "account",
          "type": "address"
        }
      ],
      "name": "Paused",
      "type": "event"
    },
    {
      "anonymous": false,
      "inputs": [
        {
          "indexed": false,
          "internalType": "address",
          "name": "_user",
          "type": "address"
        }
      ],
      "name": "RemovedFromBlackList",
      "type": "event"
    },
    {
      "anonymous": false,
      "inputs": [
        {
          "indexed": false,
          "internalType": "uint256",
          "name": "amount",
          "type": "uint256"
        }
      ],
      "name": "TokenPriceUpdated",
      "type": "event"
    },
    {
      "anonymous": false,
      "inputs": [
        {
          "indexed": true,
          "internalType": "address",
          "name": "from",
          "type": "address"
        },
        {
          "indexed": true,
          "internalType": "address",
          "name": "to",
          "type": "address"
        },
        {
          "indexed": false,
          "internalType": "uint256",
          "name": "value",
          "type": "uint256"
        }
      ],
      "name": "Transfer",
      "type": "event"
    },
    {
      "anonymous": false,
      "inputs": [
        {
          "indexed": false,
          "internalType": "address",
          "name": "account",
          "type": "address"
        }
      ],
      "name": "Unpaused",
      "type": "event"
    },
    {
      "inputs": [
        {
          "internalType": "address",
          "name": "owner",
          "type": "address"
        },
        {
          "internalType": "address",
          "name": "spender",
          "type": "address"
        }
      ],
      "name": "allowance",
      "outputs": [
        {
          "internalType": "uint256",
          "name": "",
          "type": "uint256"
        }
      ],
      "stateMutability": "view",
      "type": "function",
      "constant": true
    },
    {
      "inputs": [
        {
          "internalType": "address",
          "name": "spender",
          "type": "address"
        },
        {
          "internalType": "uint256",
          "name": "amount",
          "type": "uint256"
        }
      ],
      "name": "approve",
      "outputs": [
        {
          "internalType": "bool",
          "name": "",
          "type": "bool"
        }
      ],
      "stateMutability": "nonpayable",
      "type": "function"
    },
    {
      "inputs": [
        {
          "internalType": "address",
          "name": "account",
          "type": "address"
        }
      ],
      "name": "balanceOf",
      "outputs": [
        {
          "internalType": "uint256",
          "name": "",
          "type": "uint256"
        }
      ],
      "stateMutability": "view",
      "type": "function",
      "constant": true
    },
    {
      "inputs": [
        {
          "internalType": "address",
          "name": "",
          "type": "address"
        }
      ],
      "name": "blackList",
      "outputs": [
        {
          "internalType": "bool",
          "name": "",
          "type": "bool"
        }
      ],
      "stateMutability": "view",
      "type": "function",
      "constant": true
    },
    {
      "inputs": [],
      "name": "decimals",
      "outputs": [
        {
          "internalType": "uint8",
          "name": "",
          "type": "uint8"
        }
      ],
      "stateMutability": "view",
      "type": "function",
      "constant": true
    },
    {
      "inputs": [
        {
          "internalType": "address",
          "name": "spender",
          "type": "address"
        },
        {
          "internalType": "uint256",
          "name": "subtractedValue",
          "type": "uint256"
        }
      ],
      "name": "decreaseAllowance",
      "outputs": [
        {
          "internalType": "bool",
          "name": "",
          "type": "bool"
        }
      ],
      "stateMutability": "nonpayable",
      "type": "function"
    },
    {
      "inputs": [
        {
          "internalType": "address",
          "name": "spender",
          "type": "address"
        },
        {
          "internalType": "uint256",
          "name": "addedValue",
          "type": "uint256"
        }
      ],
      "name": "increaseAllowance",
      "outputs": [
        {
          "internalType": "bool",
          "name": "",
          "type": "bool"
        }
      ],
      "stateMutability": "nonpayable",
      "type": "function"
    },
    {
      "inputs": [],
      "name": "name",
      "outputs": [
        {
          "internalType": "string",
          "name": "",
          "type": "string"
        }
      ],
      "stateMutability": "view",
      "type": "function",
      "constant": true
    },
    {
      "inputs": [],
      "name": "owner",
      "outputs": [
        {
          "internalType": "address",
          "name": "",
          "type": "address"
        }
      ],
      "stateMutability": "view",
      "type": "function",
      "constant": true
    },
    {
      "inputs": [],
      "name": "paused",
      "outputs": [
        {
          "internalType": "bool",
          "name": "",
          "type": "bool"
        }
      ],
      "stateMutability": "view",
      "type": "function",
      "constant": true
    },
    {
      "inputs": [],
      "name": "renounceOwnership",
      "outputs": [],
      "stateMutability": "nonpayable",
      "type": "function"
    },
    {
      "inputs": [],
      "name": "symbol",
      "outputs": [
        {
          "internalType": "string",
          "name": "",
          "type": "string"
        }
      ],
      "stateMutability": "view",
      "type": "function",
      "constant": true
    },
    {
      "inputs": [],
      "name": "tokenPrice",
      "outputs": [
        {
          "internalType": "uint256",
          "name": "",
          "type": "uint256"
        }
      ],
      "stateMutability": "view",
      "type": "function",
      "constant": true
    },
    {
      "inputs": [],
      "name": "totalSupply",
      "outputs": [
        {
          "internalType": "uint256",
          "name": "",
          "type": "uint256"
        }
      ],
      "stateMutability": "view",
      "type": "function",
      "constant": true
    },
    {
      "inputs": [
        {
          "internalType": "address",
          "name": "to",
          "type": "address"
        },
        {
          "internalType": "uint256",
          "name": "amount",
          "type": "uint256"
        }
      ],
      "name": "transfer",
      "outputs": [
        {
          "internalType": "bool",
          "name": "",
          "type": "bool"
        }
      ],
      "stateMutability": "nonpayable",
      "type": "function"
    },
    {
      "inputs": [
        {
          "internalType": "address",
          "name": "from",
          "type": "address"
        },
        {
          "internalType": "address",
          "name": "to",
          "type": "address"
        },
        {
          "internalType": "uint256",
          "name": "amount",
          "type": "uint256"
        }
      ],
      "name": "transferFrom",
      "outputs": [
        {
          "internalType": "bool",
          "name": "",
          "type": "bool"
        }
      ],
      "stateMutability": "nonpayable",
      "type": "function"
    },
    {
      "inputs": [
        {
          "internalType": "address",
          "name": "newOwner",
          "type": "address"
        }
      ],
      "name": "transferOwnership",
      "outputs": [],
      "stateMutability": "nonpayable",
      "type": "function"
    },
    {
      "inputs": [
        {
          "internalType": "address",
          "name": "to",
          "type": "address"
        },
        {
          "internalType": "uint256",
          "name": "amount",
          "type": "uint256"
        }
      ],
      "name": "mint",
      "outputs": [],
      "stateMutability": "payable",
      "type": "function",
      "payable": true
    },
    {
      "inputs": [
        {
          "internalType": "address[]",
          "name": "account",
          "type": "address[]"
        },
        {
          "internalType": "uint256[]",
          "name": "amount",
          "type": "uint256[]"
        }
      ],
      "name": "airDrop",
      "outputs": [],
      "stateMutability": "nonpayable",
      "type": "function"
    },
    {
      "inputs": [],
      "name": "withdraw",
      "outputs": [],
      "stateMutability": "nonpayable",
      "type": "function"
    },
    {
      "inputs": [
        {
          "internalType": "address",
          "name": "blackListAddress",
          "type": "address"
        }
      ],
      "name": "addToBlackList",
      "outputs": [],
      "stateMutability": "nonpayable",
      "type": "function"
    },
    {
      "inputs": [
        {
          "internalType": "address",
          "name": "blackListAddress",
          "type": "address"
        }
      ],
      "name": "removeFromBlackList",
      "outputs": [],
      "stateMutability": "nonpayable",
      "type": "function"
    },
    {
      "inputs": [
        {
          "internalType": "uint256",
          "name": "newTokenPrice",
          "type": "uint256"
        }
      ],
      "name": "updateTokenPrice",
      "outputs": [],
      "stateMutability": "nonpayable",
      "type": "function"
    },
    {
      "inputs": [],
      "name": "getContractBalance",
      "outputs": [
        {
          "internalType": "uint256",
          "name": "balance",
          "type": "uint256"
        }
      ],
      "stateMutability": "view",
      "type": "function",
      "constant": true
    },
    {
      "inputs": [],
      "name": "pause",
      "outputs": [],
      "stateMutability": "nonpayable",
      "type": "function"
    },
    {
      "inputs": [],
      "name": "unpause",
      "outputs": [],
      "stateMutability": "nonpayable",
      "type": "function"
    }
  ],
  "bytecode": "0x60806040523480156200001157600080fd5b5060405162001c9538038062001c9583398101604081905262000034916200023e565b8251839083906200004d906003906020850190620000e1565b50805162000063906004906020840190620000e1565b50506005805460ff19169055506200007b3362000087565b60075550620003049050565b600580546001600160a01b03838116610100818102610100600160a81b031985161790945560405193909204169182907f8be0079c531659141344cd1fd0a4f28419497f9722a3daafe3b4186f6b6457e090600090a35050565b828054620000ef90620002b1565b90600052602060002090601f0160209004810192826200011357600085556200015e565b82601f106200012e57805160ff19168380011785556200015e565b828001600101855582156200015e579182015b828111156200015e57825182559160200191906001019062000141565b506200016c92915062000170565b5090565b5b808211156200016c576000815560010162000171565b600082601f8301126200019957600080fd5b81516001600160401b0380821115620001b657620001b6620002ee565b604051601f8301601f19908116603f01168101908282118183101715620001e157620001e1620002ee565b81604052838152602092508683858801011115620001fe57600080fd5b600091505b8382101562000222578582018301518183018401529082019062000203565b83821115620002345760008385830101525b9695505050505050565b6000806000606084860312156200025457600080fd5b83516001600160401b03808211156200026c57600080fd5b6200027a8783880162000187565b945060208601519150808211156200029157600080fd5b50620002a08682870162000187565b925050604084015190509250925092565b600181811c90821680620002c657607f821691505b60208210811415620002e857634e487b7160e01b600052602260045260246000fd5b50919050565b634e487b7160e01b600052604160045260246000fd5b61198180620003146000396000f3fe6080604052600436106101815760003560e01c806365216a41116100d15780638456cb591161008a578063a457c2d711610064578063a457c2d714610437578063a9059cbb14610457578063dd62ed3e14610477578063f2fde38b1461049757600080fd5b80638456cb59146103d75780638da5cb5b146103ec57806395d89b411461042257600080fd5b806365216a4114610323578063676c0d77146103435780636f9fb98a1461036357806370a0823114610376578063715018a6146103ac5780637ff9b596146103c157600080fd5b80633ccfd60b1161013e578063417c73a711610118578063417c73a71461029b5780634838d165146102bb5780634a49ac4c146102eb5780635c975abb1461030b57600080fd5b80633ccfd60b1461025c5780633f4ba83a1461027357806340c10f191461028857600080fd5b806306fdde0314610186578063095ea7b3146101b157806318160ddd146101e157806323b872dd14610200578063313ce56714610220578063395093511461023c575b600080fd5b34801561019257600080fd5b5061019b6104b7565b6040516101a891906117cb565b60405180910390f35b3480156101bd57600080fd5b506101d16101cc366004611667565b610549565b60405190151581526020016101a8565b3480156101ed57600080fd5b506002545b6040519081526020016101a8565b34801561020c57600080fd5b506101d161021b36600461162b565b610561565b34801561022c57600080fd5b50604051601281526020016101a8565b34801561024857600080fd5b506101d1610257366004611667565b610585565b34801561026857600080fd5b506102716105a7565b005b34801561027f57600080fd5b506102716106a9565b610271610296366004611667565b6106bb565b3480156102a757600080fd5b506102716102b63660046115d6565b610917565b3480156102c757600080fd5b506101d16102d63660046115d6565b60066020526000908152604090205460ff1681565b3480156102f757600080fd5b506102716103063660046115d6565b6109d6565b34801561031757600080fd5b5060055460ff166101d1565b34801561032f57600080fd5b5061027161033e366004611691565b610a89565b34801561034f57600080fd5b5061027161035e3660046117b2565b610ca9565b34801561036f57600080fd5b50476101f2565b34801561038257600080fd5b506101f26103913660046115d6565b6001600160a01b031660009081526020819052604090205490565b3480156103b857600080fd5b50610271610d70565b3480156103cd57600080fd5b506101f260075481565b3480156103e357600080fd5b50610271610d82565b3480156103f857600080fd5b5060055461010090046001600160a01b03166040516001600160a01b0390911681526020016101a8565b34801561042e57600080fd5b5061019b610d92565b34801561044357600080fd5b506101d1610452366004611667565b610da1565b34801561046357600080fd5b506101d1610472366004611667565b610e1c565b34801561048357600080fd5b506101f26104923660046115f8565b610e2a565b3480156104a357600080fd5b506102716104b23660046115d6565b610e55565b6060600380546104c6906118ac565b80601f01602080910402602001604051908101604052809291908181526020018280546104f2906118ac565b801561053f5780601f106105145761010080835404028352916020019161053f565b820191906000526020600020905b81548152906001019060200180831161052257829003601f168201915b5050505050905090565b600033610557818585610ece565b5060019392505050565b60003361056f858285610ff2565b61057a858585611066565b506001949350505050565b6000336105578185856105988383610e2a565b6105a29190611875565b610ece565b6105af611234565b600047116106045760405162461bcd60e51b815260206004820181905260248201527f4552433230546f6b656e3a20496e73756666696369656e742062616c616e636560448201526064015b60405180910390fd5b336000816108fc476040518115909202916000818181858888f193505050509050806106695760405162461bcd60e51b81526020600482015260146024820152732330b4b632b2103a379039b2b7321022ba3432b960611b60448201526064016105fb565b6040516001600160a01b03831681527fccc825997dd8b4e327f2a9c9fbfa3d3664e0120031373ced5e68c467ec8f29819060200160405180910390a15050565b6106b1611234565b6106b9611294565b565b6106c36112e6565b816106cd8161132c565b1561072b5760405162461bcd60e51b815260206004820152602860248201527f4552433230546f6b656e3a2054686973206164647265737320697320696e20626044820152671b1858dadb1a5cdd60c21b60648201526084016105fb565b6001600160a01b03831661079d5760405162461bcd60e51b815260206004820152603360248201527f4552433230546f6b656e3a2043616e6e6f74206d696e74204552433230546f6b60448201527232b7103a37902d32b9379020b2323932b9b99760691b60648201526084016105fb565b6107a63361132c565b156108065760405162461bcd60e51b815260206004820152602a60248201527f4552433230546f6b656e3a2043616c6c6572206164647265737320697320626c60448201526930b1b5b634b9ba32b21760b11b60648201526084016105fb565b8161085f5760405162461bcd60e51b815260206004820152602360248201527f4552433230546f6b656e3a20416d6f756e742063616e206e6f74206265205a6560448201526239379760e91b60648201526084016105fb565b8160075461086d919061188d565b3410156108c65760405162461bcd60e51b815260206004820152602160248201527f4552433230546f6b656e3a20496e73756666696369656e742062616c616e63656044820152601760f91b60648201526084016105fb565b6108d0838361134a565b604080516001600160a01b0385168152602081018490527f1f98ee45d72cac8271cfd41cc599153bf1465afc3fc1f0b3e2a97b8f1c4253a9910160405180910390a1505050565b61091f611234565b6109276112e6565b6001600160a01b03811661094d5760405162461bcd60e51b81526004016105fb90611820565b6109568161132c565b156109c95760405162461bcd60e51b815260206004820152603960248201527f4552433230546f6b656e3a20676976656e20626c61636b4c697374416464726560448201527f737320697320616c726561647920626c61636b6c69737465640000000000000060648201526084016105fb565b6109d281611429565b5050565b6109de611234565b6109e66112e6565b6001600160a01b038116610a0c5760405162461bcd60e51b81526004016105fb90611820565b610a158161132c565b610a805760405162461bcd60e51b815260206004820152603660248201527f4552433230546f6b656e3a20676976656e20626c61636b4c69737441646472656044820152751cdcc81a5cc81b9bdd081a5b88189b1858dadb1a5cdd60521b60648201526084016105fb565b6109d281611489565b610a916112e6565b610a99611234565b80518214610af95760405162461bcd60e51b815260206004820152602760248201527f4552433230546f6b656e3a20496e636f727265637420706172616d65746572206044820152663632b733ba341760c91b60648201526084016105fb565b60005b61ffff8116831115610ca357610b3b84848361ffff16818110610b2157610b2161191f565b9050602002016020810190610b3691906115d6565b61132c565b158015610b7c57506000848461ffff8416818110610b5b57610b5b61191f565b9050602002016020810190610b7091906115d6565b6001600160a01b031614155b8015610ba65750818161ffff1681518110610b9957610b9961191f565b6020026020010151600014155b15610c9157610bfc84848361ffff16818110610bc457610bc461191f565b9050602002016020810190610bd991906115d6565b838361ffff1681518110610bef57610bef61191f565b602002602001015161134a565b7f1f98ee45d72cac8271cfd41cc599153bf1465afc3fc1f0b3e2a97b8f1c4253a984848361ffff16818110610c3357610c3361191f565b9050602002016020810190610c4891906115d6565b838361ffff1681518110610c5e57610c5e61191f565b6020026020010151604051610c889291906001600160a01b03929092168252602082015260400190565b60405180910390a15b80610c9b816118e7565b915050610afc565b50505050565b610cb1611234565b806007541415610d355760405162461bcd60e51b815260206004820152604360248201527f4552433230546f6b656e3a206e6577546f6b656e50726963652069732063616e60448201527f206e6f742062652073616d652061732063757272656e7420746f6b656e50726960648201526231b29760e91b608482015260a4016105fb565b60078190556040518181527f6b361c807733cc94a3b7bda39c1c94dcc0511e91aa47b0f7f918068e939768909060200160405180910390a150565b610d78611234565b6106b960006114da565b610d8a611234565b6106b9611534565b6060600480546104c6906118ac565b60003381610daf8286610e2a565b905083811015610e0f5760405162461bcd60e51b815260206004820152602560248201527f45524332303a2064656372656173656420616c6c6f77616e63652062656c6f77604482015264207a65726f60d81b60648201526084016105fb565b61057a8286868403610ece565b600033610557818585611066565b6001600160a01b03918216600090815260016020908152604080832093909416825291909152205490565b610e5d611234565b6001600160a01b038116610ec25760405162461bcd60e51b815260206004820152602660248201527f4f776e61626c653a206e6577206f776e657220697320746865207a65726f206160448201526564647265737360d01b60648201526084016105fb565b610ecb816114da565b50565b6001600160a01b038316610f305760405162461bcd60e51b8152602060048201526024808201527f45524332303a20617070726f76652066726f6d20746865207a65726f206164646044820152637265737360e01b60648201526084016105fb565b6001600160a01b038216610f915760405162461bcd60e51b815260206004820152602260248201527f45524332303a20617070726f766520746f20746865207a65726f206164647265604482015261737360f01b60648201526084016105fb565b6001600160a01b0383811660008181526001602090815260408083209487168084529482529182902085905590518481527f8c5be1e5ebec7d5bd14f71427d1e84f3dd0314c0f7b2291e5b200ac8c7c3b925910160405180910390a3505050565b6000610ffe8484610e2a565b90506000198114610ca357818110156110595760405162461bcd60e51b815260206004820152601d60248201527f45524332303a20696e73756666696369656e7420616c6c6f77616e636500000060448201526064016105fb565b610ca38484848403610ece565b6001600160a01b0383166110ca5760405162461bcd60e51b815260206004820152602560248201527f45524332303a207472616e736665722066726f6d20746865207a65726f206164604482015264647265737360d81b60648201526084016105fb565b6001600160a01b03821661112c5760405162461bcd60e51b815260206004820152602360248201527f45524332303a207472616e7366657220746f20746865207a65726f206164647260448201526265737360e81b60648201526084016105fb565b6001600160a01b038316600090815260208190526040902054818110156111a45760405162461bcd60e51b815260206004820152602660248201527f45524332303a207472616e7366657220616d6f756e7420657863656564732062604482015265616c616e636560d01b60648201526084016105fb565b6001600160a01b038085166000908152602081905260408082208585039055918516815290812080548492906111db908490611875565b92505081905550826001600160a01b0316846001600160a01b03167fddf252ad1be2c89b69c2b068fc378daa952ba7f163c4a11628f55a4df523b3ef8460405161122791815260200190565b60405180910390a3610ca3565b6005546001600160a01b036101009091041633146106b95760405162461bcd60e51b815260206004820181905260248201527f4f776e61626c653a2063616c6c6572206973206e6f7420746865206f776e657260448201526064016105fb565b61129c611571565b6005805460ff191690557f5db9ee0a495bf2e6ff9c91a7834c1ba4fdd244a5e8aa4e537bd38aeae4b073aa335b6040516001600160a01b03909116815260200160405180910390a1565b60055460ff16156106b95760405162461bcd60e51b815260206004820152601060248201526f14185d5cd8589b194e881c185d5cd95960821b60448201526064016105fb565b6001600160a01b031660009081526006602052604090205460ff1690565b6001600160a01b0382166113a05760405162461bcd60e51b815260206004820152601f60248201527f45524332303a206d696e7420746f20746865207a65726f20616464726573730060448201526064016105fb565b80600260008282546113b29190611875565b90915550506001600160a01b038216600090815260208190526040812080548392906113df908490611875565b90915550506040518181526001600160a01b038316906000907fddf252ad1be2c89b69c2b068fc378daa952ba7f163c4a11628f55a4df523b3ef9060200160405180910390a35050565b6001600160a01b0381166000818152600660209081526040808320805460ff191660011790555192835290917f83f4fb4e43c8e9d38b6fa4c441afe892be28f9724b9c128fb99dfee430f60e0891015b60405180910390a1506001919050565b6001600160a01b0381166000818152600660209081526040808320805460ff191690555192835290917fa5d874c36615fb5b3b7b19ec879ee123ce071c81392af0dea8c60f4fcdf186499101611479565b600580546001600160a01b03838116610100818102610100600160a81b031985161790945560405193909204169182907f8be0079c531659141344cd1fd0a4f28419497f9722a3daafe3b4186f6b6457e090600090a35050565b61153c6112e6565b6005805460ff191660011790557f62e78cea01bee320cd4e420270b5ea74000d11b0c9f74754ebdbfc544b05a2586112c93390565b60055460ff166106b95760405162461bcd60e51b815260206004820152601460248201527314185d5cd8589b194e881b9bdd081c185d5cd95960621b60448201526064016105fb565b80356001600160a01b03811681146115d157600080fd5b919050565b6000602082840312156115e857600080fd5b6115f1826115ba565b9392505050565b6000806040838503121561160b57600080fd5b611614836115ba565b9150611622602084016115ba565b90509250929050565b60008060006060848603121561164057600080fd5b611649846115ba565b9250611657602085016115ba565b9150604084013590509250925092565b6000806040838503121561167a57600080fd5b611683836115ba565b946020939093013593505050565b6000806000604084860312156116a657600080fd5b833567ffffffffffffffff808211156116be57600080fd5b818601915086601f8301126116d257600080fd5b8135818111156116e157600080fd5b602088818360051b86010111156116f757600080fd5b80840196508195508088013593508284111561171257600080fd5b838801935088601f85011261172657600080fd5b833591508282111561173a5761173a611935565b8160051b604051601f19603f8301168101818110868211171561175f5761175f611935565b604052838152828101945085830182870184018c101561177e57600080fd5b600096505b848710156117a1578035865260019690960195948301948301611783565b508096505050505050509250925092565b6000602082840312156117c457600080fd5b5035919050565b600060208083528351808285015260005b818110156117f8578581018301518582016040015282016117dc565b8181111561180a576000604083870101525b50601f01601f1916929092016040019392505050565b60208082526035908201527f4552433230546f6b656e3a20626c61636b4c697374416464726573732063616e604082015274103737ba103132902d32b9379020b2323932b9b99760591b606082015260800190565b6000821982111561188857611888611909565b500190565b60008160001904831182151516156118a7576118a7611909565b500290565b600181811c908216806118c057607f821691505b602082108114156118e157634e487b7160e01b600052602260045260246000fd5b50919050565b600061ffff808316818114156118ff576118ff611909565b6001019392505050565b634e487b7160e01b600052601160045260246000fd5b634e487b7160e01b600052603260045260246000fd5b634e487b7160e01b600052604160045260246000fdfea26469706673582212207de19c77ffa9d860a170f1f593fd737f83e51f04151119ecb24d1fa9740d56f564736f6c63430008070033",
  "immutableReferences": {},
  "source": "// SPDX-License-Identifier: UNLICENSED\npragma solidity ^0.8.7;\n\n/**\n* @title A ERC20Token contract\n* @author Systango team\n* @notice Serves as a fungible token\n* @dev Inherits the OpenZepplin ERC20 implentation\n */\nimport \"@openzeppelin/contracts/token/ERC20/ERC20.sol\";\nimport \"@openzeppelin/contracts/security/Pausable.sol\";\nimport \"@openzeppelin/contracts/access/Ownable.sol\";\n\nimport \"./IERC20Token.sol\";\nimport \"./BlackList.sol\";\n\ncontract ERC20Token is ERC20, Pausable, Ownable, IERC20Token, BlackList{\n    \n    /**\n     *   @notice Price of ERC20 Token\n     */\n    uint256 public tokenPrice;\n\n    /**\n    * Zero Address\n    */ \n    address constant ZERO_ADDRESS = address(0);\n\n    /**\n     * @dev Sets the values for {name}, {symbol} and {_tokenPrice}\n     * @custom:info The default value of {decimals} is 18\n     * @custom:info name and symbol values are immutable: they can only be set once during construction\n     */\n    constructor(string memory name, string memory symbol,uint256 _tokenPrice) \n        ERC20(name, symbol) \n    {\n        tokenPrice = _tokenPrice;\n    }\n\n    /**\n    * @dev This is the mint function. It is used for minting `amount` ERC20 tokens to the `to` address\n    * @dev Only non-blacklisted user can call this function\n    * @param to The address to be token minted\n    * @param amount Number of the ERC20 tokens to be minted\n    */\n    function mint(address to, uint256 amount) external payable override whenNotPaused whenNotBlackListedUser(to) {\n        require(to != ZERO_ADDRESS, \"ERC20Token: Cannot mint ERC20Token to Zero Address.\");\n        require(!_isBlackListUser(msg.sender), \"ERC20Token: Caller address is blacklisted.\");\n        require(amount != 0, \"ERC20Token: Amount can not be Zero.\");\n        require(msg.value >= tokenPrice * amount,\"ERC20Token: Insufficient balance.\");\n        _mint(to, amount);\n        emit ERC20Minted(to, amount);\n    }\n\n    /**\n    * @notice airDrop is use to put the ERC20 tokens to given addresses\n    * @dev This is the airDrop function. It is used by the owner to airdrop `amount` number of ERC20 tokens to the `account` address respectively.\n    * @dev Only the owner can call this function\n    * @param account The addresses to be airdropped\n    * @param amount The amounts of random tokens to be air dropped respectively\n    */\n     function airDrop(address[] calldata account, uint256[] memory amount) external override whenNotPaused onlyOwner {\n        require(account.length == amount.length, \"ERC20Token: Incorrect parameter length.\");\n        for(uint16 i = 0; i < account.length; i++){\n            if( (!_isBlackListUser(account[i])) && (address(account[i]) != ZERO_ADDRESS) && (amount[i] != 0) ){\n                _mint(account[i], amount[i]);\n                emit ERC20Minted(account[i], amount[i]);\n            }          \n        }\n    }\n\n    /**\n    * @notice withdraw is use to take out all the contract balance into owner account\n    * @dev This function would withdraw all the contract balance into owner's address\n    * @dev Only the owner can call this function\n    */\n    function withdraw() external override onlyOwner {\n        require(getContractBalance() > 0, \"ERC20Token: Insufficient balance\");\n        address payable _to = payable(msg.sender);\n        bool sent = _to.send(getContractBalance());\n        require(sent, \"Failed to send Ether\");\n        emit EthersWithdraw(_to);\n    }\n\n    /**\n    * @notice addToBlackList is use to add the address into blacklist\n    * @dev This function would add an address to the blacklist mapping\n    * @dev Only the owner can call this function\n    * @param blackListAddress The account to be added to blacklist\n    */\n    function addToBlackList(address blackListAddress) external override onlyOwner whenNotPaused {\n        require(blackListAddress != ZERO_ADDRESS, \"ERC20Token: blackListAddress can not be Zero Address.\");\n        require(!_isBlackListUser(blackListAddress), \"ERC20Token: given blackListAddress is already blacklisted\");\n        _addToBlackList(blackListAddress);\n    \n    }\n\n    /**\n     * @notice removeFromBlackList is use to remove the blacklisted user.\n     * @dev This function would remove an address from the blacklist mapping.\n     * @dev Only the owner can call this function.\n     * @param blackListAddress The account to be removed from blacklist.\n     */\n    function removeFromBlackList(address blackListAddress) external override onlyOwner whenNotPaused {\n        require(blackListAddress != ZERO_ADDRESS, \"ERC20Token: blackListAddress can not be Zero Address.\");\n        require(_isBlackListUser(blackListAddress), \"ERC20Token: given blackListAddress is not in blacklist\");\n        _removeFromBlackList(blackListAddress);\n    }\n\n    /**\n     * @notice updateTokenPrice is use to update the token price\n     * @param newTokenPrice is updated token price in wei\n     * @dev Returns the contract balance.\n     * @dev Only the owner can call this function.\n     */\n    function updateTokenPrice(uint256 newTokenPrice) external override onlyOwner {\n        require(tokenPrice != newTokenPrice, \"ERC20Token: newTokenPrice is can not be same as current tokenPrice.\");\n        tokenPrice = newTokenPrice;\n        emit TokenPriceUpdated(newTokenPrice);\n    }\n\n    /**\n     * @notice getContractBalance is use to check contract balance\n     * @dev Returns the contract balance\n     * @return balance Contract balance in wei\n     */\n    function getContractBalance() public view returns (uint256 balance) {\n        balance = address(this).balance;\n    }\n\n    /**\n     * @dev to pause the contract.\n     * @dev Only the owner can call this function.\n     */\n    function pause() external override onlyOwner {\n        _pause();\n    }\n\n    /**\n     * @dev to unpause the contract.\n     * @dev Only the owner can call this function.\n     */\n    function unpause() external override onlyOwner {\n        _unpause();\n    }\n}\n",
  "sourcePath": "/home/ubox141/Desktop/Blockchain Work'/ERC20-BoilerPlate/contracts/ERC20Token.sol",
  "compiler": {
    "name": "solc",
    "version": "0.8.7+commit.e28d00a7.Emscripten.clang"
  },
  "schemaVersion": "3.4.5",
  "updatedAt": "2022-11-11T11:02:04.486Z",
  "networkType": "ethereum",
  "devdoc": {
    "kind": "dev",
    "methods": {
      "addToBlackList(address)": {
        "details": "This function would add an address to the blacklist mappingOnly the owner can call this function",
        "params": {
          "blackListAddress": "The account to be added to blacklist"
        }
      },
      "airDrop(address[],uint256[])": {
        "details": "This is the airDrop function. It is used by the owner to airdrop `amount` number of ERC20 tokens to the `account` address respectively.Only the owner can call this function",
        "params": {
          "account": "The addresses to be airdropped",
          "amount": "The amounts of random tokens to be air dropped respectively"
        }
      },
      "allowance(address,address)": {
        "details": "See {IERC20-allowance}."
      },
      "approve(address,uint256)": {
        "details": "See {IERC20-approve}. NOTE: If `amount` is the maximum `uint256`, the allowance is not updated on `transferFrom`. This is semantically equivalent to an infinite approval. Requirements: - `spender` cannot be the zero address."
      },
      "balanceOf(address)": {
        "details": "See {IERC20-balanceOf}."
      },
      "constructor": {
        "custom:info": "The default value of {decimals} is 18name and symbol values are immutable: they can only be set once during construction",
        "details": "Sets the values for {name}, {symbol} and {_tokenPrice}"
      },
      "decimals()": {
        "details": "Returns the number of decimals used to get its user representation. For example, if `decimals` equals `2`, a balance of `505` tokens should be displayed to a user as `5.05` (`505 / 10 ** 2`). Tokens usually opt for a value of 18, imitating the relationship between Ether and Wei. This is the value {ERC20} uses, unless this function is overridden; NOTE: This information is only used for _display_ purposes: it in no way affects any of the arithmetic of the contract, including {IERC20-balanceOf} and {IERC20-transfer}."
      },
      "decreaseAllowance(address,uint256)": {
        "details": "Atomically decreases the allowance granted to `spender` by the caller. This is an alternative to {approve} that can be used as a mitigation for problems described in {IERC20-approve}. Emits an {Approval} event indicating the updated allowance. Requirements: - `spender` cannot be the zero address. - `spender` must have allowance for the caller of at least `subtractedValue`."
      },
      "getContractBalance()": {
        "details": "Returns the contract balance",
        "returns": {
          "balance": "Contract balance in wei"
        }
      },
      "increaseAllowance(address,uint256)": {
        "details": "Atomically increases the allowance granted to `spender` by the caller. This is an alternative to {approve} that can be used as a mitigation for problems described in {IERC20-approve}. Emits an {Approval} event indicating the updated allowance. Requirements: - `spender` cannot be the zero address."
      },
      "mint(address,uint256)": {
        "details": "This is the mint function. It is used for minting `amount` ERC20 tokens to the `to` addressOnly non-blacklisted user can call this function",
        "params": {
          "amount": "Number of the ERC20 tokens to be minted",
          "to": "The address to be token minted"
        }
      },
      "name()": {
        "details": "Returns the name of the token."
      },
      "owner()": {
        "details": "Returns the address of the current owner."
      },
      "pause()": {
        "details": "to pause the contract.Only the owner can call this function."
      },
      "paused()": {
        "details": "Returns true if the contract is paused, and false otherwise."
      },
      "removeFromBlackList(address)": {
        "details": "This function would remove an address from the blacklist mapping.Only the owner can call this function.",
        "params": {
          "blackListAddress": "The account to be removed from blacklist."
        }
      },
      "renounceOwnership()": {
        "details": "Leaves the contract without owner. It will not be possible to call `onlyOwner` functions anymore. Can only be called by the current owner. NOTE: Renouncing ownership will leave the contract without an owner, thereby removing any functionality that is only available to the owner."
      },
      "symbol()": {
        "details": "Returns the symbol of the token, usually a shorter version of the name."
      },
      "totalSupply()": {
        "details": "See {IERC20-totalSupply}."
      },
      "transfer(address,uint256)": {
        "details": "See {IERC20-transfer}. Requirements: - `to` cannot be the zero address. - the caller must have a balance of at least `amount`."
      },
      "transferFrom(address,address,uint256)": {
        "details": "See {IERC20-transferFrom}. Emits an {Approval} event indicating the updated allowance. This is not required by the EIP. See the note at the beginning of {ERC20}. NOTE: Does not update the allowance if the current allowance is the maximum `uint256`. Requirements: - `from` and `to` cannot be the zero address. - `from` must have a balance of at least `amount`. - the caller must have allowance for ``from``'s tokens of at least `amount`."
      },
      "transferOwnership(address)": {
        "details": "Transfers ownership of the contract to a new account (`newOwner`). Can only be called by the current owner."
      },
      "unpause()": {
        "details": "to unpause the contract.Only the owner can call this function."
      },
      "updateTokenPrice(uint256)": {
        "details": "Returns the contract balance.Only the owner can call this function.",
        "params": {
          "newTokenPrice": "is updated token price in wei"
        }
      },
      "withdraw()": {
        "details": "This function would withdraw all the contract balance into owner's addressOnly the owner can call this function"
      }
    },
    "version": 1
  },
  "userdoc": {
    "kind": "user",
    "methods": {
      "addToBlackList(address)": {
        "notice": "addToBlackList is use to add the address into blacklist"
      },
      "airDrop(address[],uint256[])": {
        "notice": "airDrop is use to put the ERC20 tokens to given addresses"
      },
      "getContractBalance()": {
        "notice": "getContractBalance is use to check contract balance"
      },
      "removeFromBlackList(address)": {
        "notice": "removeFromBlackList is use to remove the blacklisted user."
      },
      "tokenPrice()": {
        "notice": "Price of ERC20 Token"
      },
      "updateTokenPrice(uint256)": {
        "notice": "updateTokenPrice is use to update the token price"
      },
      "withdraw()": {
        "notice": "withdraw is use to take out all the contract balance into owner account"
      }
    },
    "version": 1
  }
}