{
  "contractName": "ERC20Token",
  "abi": [
    {
      "inputs": [
        {
          "internalType": "string",
          "name": "name",
          "type": "string"
        },
        {
          "internalType": "string",
          "name": "symbol",
          "type": "string"
        },
        {
          "internalType": "uint256",
          "name": "_tokenPrice",
          "type": "uint256"
        }
      ],
      "stateMutability": "nonpayable",
      "type": "constructor"
    },
    {
      "anonymous": false,
      "inputs": [
        {
          "indexed": false,
          "internalType": "address",
          "name": "_user",
          "type": "address"
        }
      ],
      "name": "AddedToBlackList",
      "type": "event"
    },
    {
      "anonymous": false,
      "inputs": [
        {
          "indexed": true,
          "internalType": "address",
          "name": "owner",
          "type": "address"
        },
        {
          "indexed": true,
          "internalType": "address",
          "name": "spender",
          "type": "address"
        },
        {
          "indexed": false,
          "internalType": "uint256",
          "name": "value",
          "type": "uint256"
        }
      ],
      "name": "Approval",
      "type": "event"
    },
    {
      "anonymous": false,
      "inputs": [
        {
          "indexed": true,
          "internalType": "address",
          "name": "previousOwner",
          "type": "address"
        },
        {
          "indexed": true,
          "internalType": "address",
          "name": "newOwner",
          "type": "address"
        }
      ],
      "name": "OwnershipTransferred",
      "type": "event"
    },
    {
      "anonymous": false,
      "inputs": [
        {
          "indexed": false,
          "internalType": "address",
          "name": "account",
          "type": "address"
        }
      ],
      "name": "Paused",
      "type": "event"
    },
    {
      "anonymous": false,
      "inputs": [
        {
          "indexed": false,
          "internalType": "address",
          "name": "_user",
          "type": "address"
        }
      ],
      "name": "RemovedFromBlackList",
      "type": "event"
    },
    {
      "anonymous": false,
      "inputs": [
        {
          "indexed": true,
          "internalType": "address",
          "name": "from",
          "type": "address"
        },
        {
          "indexed": true,
          "internalType": "address",
          "name": "to",
          "type": "address"
        },
        {
          "indexed": false,
          "internalType": "uint256",
          "name": "value",
          "type": "uint256"
        }
      ],
      "name": "Transfer",
      "type": "event"
    },
    {
      "anonymous": false,
      "inputs": [
        {
          "indexed": false,
          "internalType": "address",
          "name": "account",
          "type": "address"
        }
      ],
      "name": "Unpaused",
      "type": "event"
    },
    {
      "inputs": [
        {
          "internalType": "address",
          "name": "owner",
          "type": "address"
        },
        {
          "internalType": "address",
          "name": "spender",
          "type": "address"
        }
      ],
      "name": "allowance",
      "outputs": [
        {
          "internalType": "uint256",
          "name": "",
          "type": "uint256"
        }
      ],
      "stateMutability": "view",
      "type": "function",
      "constant": true
    },
    {
      "inputs": [
        {
          "internalType": "address",
          "name": "spender",
          "type": "address"
        },
        {
          "internalType": "uint256",
          "name": "amount",
          "type": "uint256"
        }
      ],
      "name": "approve",
      "outputs": [
        {
          "internalType": "bool",
          "name": "",
          "type": "bool"
        }
      ],
      "stateMutability": "nonpayable",
      "type": "function"
    },
    {
      "inputs": [
        {
          "internalType": "address",
          "name": "account",
          "type": "address"
        }
      ],
      "name": "balanceOf",
      "outputs": [
        {
          "internalType": "uint256",
          "name": "",
          "type": "uint256"
        }
      ],
      "stateMutability": "view",
      "type": "function",
      "constant": true
    },
    {
      "inputs": [
        {
          "internalType": "address",
          "name": "",
          "type": "address"
        }
      ],
      "name": "blackList",
      "outputs": [
        {
          "internalType": "bool",
          "name": "",
          "type": "bool"
        }
      ],
      "stateMutability": "view",
      "type": "function",
      "constant": true
    },
    {
      "inputs": [],
      "name": "decimals",
      "outputs": [
        {
          "internalType": "uint8",
          "name": "",
          "type": "uint8"
        }
      ],
      "stateMutability": "view",
      "type": "function",
      "constant": true
    },
    {
      "inputs": [
        {
          "internalType": "address",
          "name": "spender",
          "type": "address"
        },
        {
          "internalType": "uint256",
          "name": "subtractedValue",
          "type": "uint256"
        }
      ],
      "name": "decreaseAllowance",
      "outputs": [
        {
          "internalType": "bool",
          "name": "",
          "type": "bool"
        }
      ],
      "stateMutability": "nonpayable",
      "type": "function"
    },
    {
      "inputs": [
        {
          "internalType": "address",
          "name": "spender",
          "type": "address"
        },
        {
          "internalType": "uint256",
          "name": "addedValue",
          "type": "uint256"
        }
      ],
      "name": "increaseAllowance",
      "outputs": [
        {
          "internalType": "bool",
          "name": "",
          "type": "bool"
        }
      ],
      "stateMutability": "nonpayable",
      "type": "function"
    },
    {
      "inputs": [],
      "name": "name",
      "outputs": [
        {
          "internalType": "string",
          "name": "",
          "type": "string"
        }
      ],
      "stateMutability": "view",
      "type": "function",
      "constant": true
    },
    {
      "inputs": [],
      "name": "owner",
      "outputs": [
        {
          "internalType": "address",
          "name": "",
          "type": "address"
        }
      ],
      "stateMutability": "view",
      "type": "function",
      "constant": true
    },
    {
      "inputs": [],
      "name": "paused",
      "outputs": [
        {
          "internalType": "bool",
          "name": "",
          "type": "bool"
        }
      ],
      "stateMutability": "view",
      "type": "function",
      "constant": true
    },
    {
      "inputs": [],
      "name": "renounceOwnership",
      "outputs": [],
      "stateMutability": "nonpayable",
      "type": "function"
    },
    {
      "inputs": [],
      "name": "symbol",
      "outputs": [
        {
          "internalType": "string",
          "name": "",
          "type": "string"
        }
      ],
      "stateMutability": "view",
      "type": "function",
      "constant": true
    },
    {
      "inputs": [],
      "name": "tokenPrice",
      "outputs": [
        {
          "internalType": "uint256",
          "name": "",
          "type": "uint256"
        }
      ],
      "stateMutability": "view",
      "type": "function",
      "constant": true
    },
    {
      "inputs": [],
      "name": "totalSupply",
      "outputs": [
        {
          "internalType": "uint256",
          "name": "",
          "type": "uint256"
        }
      ],
      "stateMutability": "view",
      "type": "function",
      "constant": true
    },
    {
      "inputs": [
        {
          "internalType": "address",
          "name": "to",
          "type": "address"
        },
        {
          "internalType": "uint256",
          "name": "amount",
          "type": "uint256"
        }
      ],
      "name": "transfer",
      "outputs": [
        {
          "internalType": "bool",
          "name": "",
          "type": "bool"
        }
      ],
      "stateMutability": "nonpayable",
      "type": "function"
    },
    {
      "inputs": [
        {
          "internalType": "address",
          "name": "from",
          "type": "address"
        },
        {
          "internalType": "address",
          "name": "to",
          "type": "address"
        },
        {
          "internalType": "uint256",
          "name": "amount",
          "type": "uint256"
        }
      ],
      "name": "transferFrom",
      "outputs": [
        {
          "internalType": "bool",
          "name": "",
          "type": "bool"
        }
      ],
      "stateMutability": "nonpayable",
      "type": "function"
    },
    {
      "inputs": [
        {
          "internalType": "address",
          "name": "newOwner",
          "type": "address"
        }
      ],
      "name": "transferOwnership",
      "outputs": [],
      "stateMutability": "nonpayable",
      "type": "function"
    },
    {
      "inputs": [
        {
          "internalType": "address",
          "name": "to",
          "type": "address"
        },
        {
          "internalType": "uint256",
          "name": "amount",
          "type": "uint256"
        }
      ],
      "name": "mint",
      "outputs": [],
      "stateMutability": "payable",
      "type": "function",
      "payable": true
    },
    {
      "inputs": [
        {
          "internalType": "address",
          "name": "to",
          "type": "address"
        },
        {
          "internalType": "uint256",
          "name": "amount",
          "type": "uint256"
        }
      ],
      "name": "airDrop",
      "outputs": [],
      "stateMutability": "nonpayable",
      "type": "function"
    },
    {
      "inputs": [],
      "name": "withdraw",
      "outputs": [],
      "stateMutability": "nonpayable",
      "type": "function"
    },
    {
      "inputs": [
        {
          "internalType": "address",
          "name": "blackListAddress",
          "type": "address"
        }
      ],
      "name": "addToBlackList",
      "outputs": [],
      "stateMutability": "nonpayable",
      "type": "function"
    },
    {
      "inputs": [
        {
          "internalType": "address",
          "name": "blackListAddress",
          "type": "address"
        }
      ],
      "name": "removeFromBlackList",
      "outputs": [],
      "stateMutability": "nonpayable",
      "type": "function"
    },
    {
      "inputs": [
        {
          "internalType": "uint256",
          "name": "newTokenPrice",
          "type": "uint256"
        }
      ],
      "name": "updateTokenPrice",
      "outputs": [],
      "stateMutability": "nonpayable",
      "type": "function"
    },
    {
      "inputs": [],
      "name": "getContractBalance",
      "outputs": [
        {
          "internalType": "uint256",
          "name": "balance",
          "type": "uint256"
        }
      ],
      "stateMutability": "view",
      "type": "function",
      "constant": true
    },
    {
      "inputs": [],
      "name": "pause",
      "outputs": [],
      "stateMutability": "nonpayable",
      "type": "function"
    },
    {
      "inputs": [],
      "name": "unpause",
      "outputs": [],
      "stateMutability": "nonpayable",
      "type": "function"
    }
  ],
  "bytecode": "0x60806040523480156200001157600080fd5b5060405162002f7238038062002f728339818101604052810190620000379190620002cb565b828281600390805190602001906200005192919062000186565b5080600490805190602001906200006a92919062000186565b5050506000600560006101000a81548160ff021916908315150217905550620000a86200009c620000b860201b60201c565b620000c060201b60201c565b806007819055505050506200050d565b600033905090565b6000600560019054906101000a900473ffffffffffffffffffffffffffffffffffffffff16905081600560016101000a81548173ffffffffffffffffffffffffffffffffffffffff021916908373ffffffffffffffffffffffffffffffffffffffff1602179055508173ffffffffffffffffffffffffffffffffffffffff168173ffffffffffffffffffffffffffffffffffffffff167f8be0079c531659141344cd1fd0a4f28419497f9722a3daafe3b4186f6b6457e060405160405180910390a35050565b828054620001949062000404565b90600052602060002090601f016020900481019282620001b8576000855562000204565b82601f10620001d357805160ff191683800117855562000204565b8280016001018555821562000204579182015b8281111562000203578251825591602001919060010190620001e6565b5b50905062000213919062000217565b5090565b5b808211156200023257600081600090555060010162000218565b5090565b60006200024d62000247846200038e565b62000365565b9050828152602081018484840111156200026c576200026b620004d3565b5b62000279848285620003ce565b509392505050565b600082601f830112620002995762000298620004ce565b5b8151620002ab84826020860162000236565b91505092915050565b600081519050620002c581620004f3565b92915050565b600080600060608486031215620002e757620002e6620004dd565b5b600084015167ffffffffffffffff811115620003085762000307620004d8565b5b620003168682870162000281565b935050602084015167ffffffffffffffff8111156200033a5762000339620004d8565b5b620003488682870162000281565b92505060406200035b86828701620002b4565b9150509250925092565b60006200037162000384565b90506200037f82826200043a565b919050565b6000604051905090565b600067ffffffffffffffff821115620003ac57620003ab6200049f565b5b620003b782620004e2565b9050602081019050919050565b6000819050919050565b60005b83811015620003ee578082015181840152602081019050620003d1565b83811115620003fe576000848401525b50505050565b600060028204905060018216806200041d57607f821691505b6020821081141562000434576200043362000470565b5b50919050565b6200044582620004e2565b810181811067ffffffffffffffff821117156200046757620004666200049f565b5b80604052505050565b7f4e487b7100000000000000000000000000000000000000000000000000000000600052602260045260246000fd5b7f4e487b7100000000000000000000000000000000000000000000000000000000600052604160045260246000fd5b600080fd5b600080fd5b600080fd5b600080fd5b6000601f19601f8301169050919050565b620004fe81620003c4565b81146200050a57600080fd5b50565b612a55806200051d6000396000f3fe6080604052600436106101815760003560e01c80635c975abb116100d15780638456cb591161008a578063a457c2d711610064578063a457c2d71461052b578063a9059cbb14610568578063dd62ed3e146105a5578063f2fde38b146105e257610181565b80638456cb59146104be5780638da5cb5b146104d557806395d89b411461050057610181565b80635c975abb146103c0578063676c0d77146103eb5780636f9fb98a1461041457806370a082311461043f578063715018a61461047c5780637ff9b5961461049357610181565b8063395093511161013e57806340c10f191161011857806340c10f1914610315578063417c73a7146103315780634838d1651461035a5780634a49ac4c1461039757610181565b806339509351146102aa5780633ccfd60b146102e75780633f4ba83a146102fe57610181565b8063045f78501461018657806306fdde03146101af578063095ea7b3146101da57806318160ddd1461021757806323b872dd14610242578063313ce5671461027f575b600080fd5b34801561019257600080fd5b506101ad60048036038101906101a89190611adf565b61060b565b005b3480156101bb57600080fd5b506101c4610699565b6040516101d19190611ef9565b60405180910390f35b3480156101e657600080fd5b5061020160048036038101906101fc9190611adf565b61072b565b60405161020e9190611ede565b60405180910390f35b34801561022357600080fd5b5061022c61074e565b60405161023991906121db565b60405180910390f35b34801561024e57600080fd5b5061026960048036038101906102649190611a8c565b610758565b6040516102769190611ede565b60405180910390f35b34801561028b57600080fd5b50610294610787565b6040516102a191906121f6565b60405180910390f35b3480156102b657600080fd5b506102d160048036038101906102cc9190611adf565b610790565b6040516102de9190611ede565b60405180910390f35b3480156102f357600080fd5b506102fc6107c7565b005b34801561030a57600080fd5b506103136108a2565b005b61032f600480360381019061032a9190611adf565b6108b4565b005b34801561033d57600080fd5b5061035860048036038101906103539190611a1f565b610a20565b005b34801561036657600080fd5b50610381600480360381019061037c9190611a1f565b610af6565b60405161038e9190611ede565b60405180910390f35b3480156103a357600080fd5b506103be60048036038101906103b99190611a1f565b610b16565b005b3480156103cc57600080fd5b506103d5610beb565b6040516103e29190611ede565b60405180910390f35b3480156103f757600080fd5b50610412600480360381019061040d9190611b1f565b610c02565b005b34801561042057600080fd5b50610429610c59565b60405161043691906121db565b60405180910390f35b34801561044b57600080fd5b5061046660048036038101906104619190611a1f565b610c61565b60405161047391906121db565b60405180910390f35b34801561048857600080fd5b50610491610ca9565b005b34801561049f57600080fd5b506104a8610cbd565b6040516104b591906121db565b60405180910390f35b3480156104ca57600080fd5b506104d3610cc3565b005b3480156104e157600080fd5b506104ea610cd5565b6040516104f79190611ec3565b60405180910390f35b34801561050c57600080fd5b50610515610cff565b6040516105229190611ef9565b60405180910390f35b34801561053757600080fd5b50610552600480360381019061054d9190611adf565b610d91565b60405161055f9190611ede565b60405180910390f35b34801561057457600080fd5b5061058f600480360381019061058a9190611adf565b610e08565b60405161059c9190611ede565b60405180910390f35b3480156105b157600080fd5b506105cc60048036038101906105c79190611a4c565b610e2b565b6040516105d991906121db565b60405180910390f35b3480156105ee57600080fd5b5061060960048036038101906106049190611a1f565b610eb2565b005b610613610f36565b61061b610fb4565b600073ffffffffffffffffffffffffffffffffffffffff168273ffffffffffffffffffffffffffffffffffffffff16141561068b576040517f08c379a00000000000000000000000000000000000000000000000000000000081526004016106829061211b565b60405180910390fd5b6106958282610ffe565b5050565b6060600380546106a890612365565b80601f01602080910402602001604051908101604052809291908181526020018280546106d490612365565b80156107215780601f106106f657610100808354040283529160200191610721565b820191906000526020600020905b81548152906001019060200180831161070457829003601f168201915b5050505050905090565b60008061073661115e565b9050610743818585611166565b600191505092915050565b6000600254905090565b60008061076361115e565b9050610770858285611331565b61077b8585856113bd565b60019150509392505050565b60006012905090565b60008061079b61115e565b90506107bc8185856107ad8589610e2b565b6107b7919061222d565b611166565b600191505092915050565b6107cf610f36565b60006107d9610c59565b11610819576040517f08c379a00000000000000000000000000000000000000000000000000000000081526004016108109061215b565b60405180910390fd5b600033905060008173ffffffffffffffffffffffffffffffffffffffff166108fc610842610c59565b9081150290604051600060405180830381858888f1935050505090508061089e576040517f08c379a000000000000000000000000000000000000000000000000000000000815260040161089590611ffb565b60405180910390fd5b5050565b6108aa610f36565b6108b261163e565b565b6108bc610fb4565b336108c6816116a1565b15610906576040517f08c379a00000000000000000000000000000000000000000000000000000000081526004016108fd9061203b565b60405180910390fd5b82610910816116a1565b15610950576040517f08c379a00000000000000000000000000000000000000000000000000000000081526004016109479061203b565b60405180910390fd5b600073ffffffffffffffffffffffffffffffffffffffff168473ffffffffffffffffffffffffffffffffffffffff1614156109c0576040517f08c379a00000000000000000000000000000000000000000000000000000000081526004016109b7906120db565b60405180910390fd5b826007546109ce9190612283565b341015610a10576040517f08c379a0000000000000000000000000000000000000000000000000000000008152600401610a079061217b565b60405180910390fd5b610a1a8484610ffe565b50505050565b610a28610f36565b610a30610fb4565b600073ffffffffffffffffffffffffffffffffffffffff168173ffffffffffffffffffffffffffffffffffffffff161415610aa0576040517f08c379a0000000000000000000000000000000000000000000000000000000008152600401610a97906120bb565b60405180910390fd5b610aa9816116a1565b15610ae9576040517f08c379a0000000000000000000000000000000000000000000000000000000008152600401610ae09061207b565b60405180910390fd5b610af2816116f7565b5050565b60066020528060005260406000206000915054906101000a900460ff1681565b610b1e610f36565b610b26610fb4565b600073ffffffffffffffffffffffffffffffffffffffff168173ffffffffffffffffffffffffffffffffffffffff161415610b96576040517f08c379a0000000000000000000000000000000000000000000000000000000008152600401610b8d906120bb565b60405180910390fd5b610b9f816116a1565b610bde576040517f08c379a0000000000000000000000000000000000000000000000000000000008152600401610bd590611f1b565b60405180910390fd5b610be781611791565b5050565b6000600560009054906101000a900460ff16905090565b610c0a610f36565b806007541415610c4f576040517f08c379a0000000000000000000000000000000000000000000000000000000008152600401610c469061209b565b60405180910390fd5b8060078190555050565b600047905090565b60008060008373ffffffffffffffffffffffffffffffffffffffff1673ffffffffffffffffffffffffffffffffffffffff168152602001908152602001600020549050919050565b610cb1610f36565b610cbb6000611879565b565b60075481565b610ccb610f36565b610cd361193f565b565b6000600560019054906101000a900473ffffffffffffffffffffffffffffffffffffffff16905090565b606060048054610d0e90612365565b80601f0160208091040260200160405190810160405280929190818152602001828054610d3a90612365565b8015610d875780601f10610d5c57610100808354040283529160200191610d87565b820191906000526020600020905b815481529060010190602001808311610d6a57829003601f168201915b5050505050905090565b600080610d9c61115e565b90506000610daa8286610e2b565b905083811015610def576040517f08c379a0000000000000000000000000000000000000000000000000000000008152600401610de69061219b565b60405180910390fd5b610dfc8286868403611166565b60019250505092915050565b600080610e1361115e565b9050610e208185856113bd565b600191505092915050565b6000600160008473ffffffffffffffffffffffffffffffffffffffff1673ffffffffffffffffffffffffffffffffffffffff16815260200190815260200160002060008373ffffffffffffffffffffffffffffffffffffffff1673ffffffffffffffffffffffffffffffffffffffff16815260200190815260200160002054905092915050565b610eba610f36565b600073ffffffffffffffffffffffffffffffffffffffff168173ffffffffffffffffffffffffffffffffffffffff161415610f2a576040517f08c379a0000000000000000000000000000000000000000000000000000000008152600401610f2190611f7b565b60405180910390fd5b610f3381611879565b50565b610f3e61115e565b73ffffffffffffffffffffffffffffffffffffffff16610f5c610cd5565b73ffffffffffffffffffffffffffffffffffffffff1614610fb2576040517f08c379a0000000000000000000000000000000000000000000000000000000008152600401610fa99061205b565b60405180910390fd5b565b610fbc610beb565b15610ffc576040517f08c379a0000000000000000000000000000000000000000000000000000000008152600401610ff39061201b565b60405180910390fd5b565b600073ffffffffffffffffffffffffffffffffffffffff168273ffffffffffffffffffffffffffffffffffffffff16141561106e576040517f08c379a0000000000000000000000000000000000000000000000000000000008152600401611065906121bb565b60405180910390fd5b61107a600083836119a2565b806002600082825461108c919061222d565b92505081905550806000808473ffffffffffffffffffffffffffffffffffffffff1673ffffffffffffffffffffffffffffffffffffffff16815260200190815260200160002060008282546110e1919061222d565b925050819055508173ffffffffffffffffffffffffffffffffffffffff16600073ffffffffffffffffffffffffffffffffffffffff167fddf252ad1be2c89b69c2b068fc378daa952ba7f163c4a11628f55a4df523b3ef8360405161114691906121db565b60405180910390a361115a600083836119a7565b5050565b600033905090565b600073ffffffffffffffffffffffffffffffffffffffff168373ffffffffffffffffffffffffffffffffffffffff1614156111d6576040517f08c379a00000000000000000000000000000000000000000000000000000000081526004016111cd9061213b565b60405180910390fd5b600073ffffffffffffffffffffffffffffffffffffffff168273ffffffffffffffffffffffffffffffffffffffff161415611246576040517f08c379a000000000000000000000000000000000000000000000000000000000815260040161123d90611f9b565b60405180910390fd5b80600160008573ffffffffffffffffffffffffffffffffffffffff1673ffffffffffffffffffffffffffffffffffffffff16815260200190815260200160002060008473ffffffffffffffffffffffffffffffffffffffff1673ffffffffffffffffffffffffffffffffffffffff168152602001908152602001600020819055508173ffffffffffffffffffffffffffffffffffffffff168373ffffffffffffffffffffffffffffffffffffffff167f8c5be1e5ebec7d5bd14f71427d1e84f3dd0314c0f7b2291e5b200ac8c7c3b9258360405161132491906121db565b60405180910390a3505050565b600061133d8484610e2b565b90507fffffffffffffffffffffffffffffffffffffffffffffffffffffffffffffffff81146113b757818110156113a9576040517f08c379a00000000000000000000000000000000000000000000000000000000081526004016113a090611fbb565b60405180910390fd5b6113b68484848403611166565b5b50505050565b600073ffffffffffffffffffffffffffffffffffffffff168373ffffffffffffffffffffffffffffffffffffffff16141561142d576040517f08c379a0000000000000000000000000000000000000000000000000000000008152600401611424906120fb565b60405180910390fd5b600073ffffffffffffffffffffffffffffffffffffffff168273ffffffffffffffffffffffffffffffffffffffff16141561149d576040517f08c379a000000000000000000000000000000000000000000000000000000000815260040161149490611f3b565b60405180910390fd5b6114a88383836119a2565b60008060008573ffffffffffffffffffffffffffffffffffffffff1673ffffffffffffffffffffffffffffffffffffffff1681526020019081526020016000205490508181101561152e576040517f08c379a000000000000000000000000000000000000000000000000000000000815260040161152590611fdb565b60405180910390fd5b8181036000808673ffffffffffffffffffffffffffffffffffffffff1673ffffffffffffffffffffffffffffffffffffffff16815260200190815260200160002081905550816000808573ffffffffffffffffffffffffffffffffffffffff1673ffffffffffffffffffffffffffffffffffffffff16815260200190815260200160002060008282546115c1919061222d565b925050819055508273ffffffffffffffffffffffffffffffffffffffff168473ffffffffffffffffffffffffffffffffffffffff167fddf252ad1be2c89b69c2b068fc378daa952ba7f163c4a11628f55a4df523b3ef8460405161162591906121db565b60405180910390a36116388484846119a7565b50505050565b6116466119ac565b6000600560006101000a81548160ff0219169083151502179055507f5db9ee0a495bf2e6ff9c91a7834c1ba4fdd244a5e8aa4e537bd38aeae4b073aa61168a61115e565b6040516116979190611ec3565b60405180910390a1565b6000600660008373ffffffffffffffffffffffffffffffffffffffff1673ffffffffffffffffffffffffffffffffffffffff16815260200190815260200160002060009054906101000a900460ff169050919050565b60006001600660008473ffffffffffffffffffffffffffffffffffffffff1673ffffffffffffffffffffffffffffffffffffffff16815260200190815260200160002060006101000a81548160ff0219169083151502179055507f83f4fb4e43c8e9d38b6fa4c441afe892be28f9724b9c128fb99dfee430f60e08826040516117809190611ec3565b60405180910390a160019050919050565b600080600660008473ffffffffffffffffffffffffffffffffffffffff1673ffffffffffffffffffffffffffffffffffffffff16815260200190815260200160002060006101000a81548160ff021916908315150217905550600660008373ffffffffffffffffffffffffffffffffffffffff1673ffffffffffffffffffffffffffffffffffffffff16815260200190815260200160002060006101000a81549060ff02191690557fa5d874c36615fb5b3b7b19ec879ee123ce071c81392af0dea8c60f4fcdf18649826040516118689190611ec3565b60405180910390a160019050919050565b6000600560019054906101000a900473ffffffffffffffffffffffffffffffffffffffff16905081600560016101000a81548173ffffffffffffffffffffffffffffffffffffffff021916908373ffffffffffffffffffffffffffffffffffffffff1602179055508173ffffffffffffffffffffffffffffffffffffffff168173ffffffffffffffffffffffffffffffffffffffff167f8be0079c531659141344cd1fd0a4f28419497f9722a3daafe3b4186f6b6457e060405160405180910390a35050565b611947610fb4565b6001600560006101000a81548160ff0219169083151502179055507f62e78cea01bee320cd4e420270b5ea74000d11b0c9f74754ebdbfc544b05a25861198b61115e565b6040516119989190611ec3565b60405180910390a1565b505050565b505050565b6119b4610beb565b6119f3576040517f08c379a00000000000000000000000000000000000000000000000000000000081526004016119ea90611f5b565b60405180910390fd5b565b600081359050611a04816129f1565b92915050565b600081359050611a1981612a08565b92915050565b600060208284031215611a3557611a346123f5565b5b6000611a43848285016119f5565b91505092915050565b60008060408385031215611a6357611a626123f5565b5b6000611a71858286016119f5565b9250506020611a82858286016119f5565b9150509250929050565b600080600060608486031215611aa557611aa46123f5565b5b6000611ab3868287016119f5565b9350506020611ac4868287016119f5565b9250506040611ad586828701611a0a565b9150509250925092565b60008060408385031215611af657611af56123f5565b5b6000611b04858286016119f5565b9250506020611b1585828601611a0a565b9150509250929050565b600060208284031215611b3557611b346123f5565b5b6000611b4384828501611a0a565b91505092915050565b611b55816122dd565b82525050565b611b64816122ef565b82525050565b6000611b7582612211565b611b7f818561221c565b9350611b8f818560208601612332565b611b98816123fa565b840191505092915050565b6000611bb060368361221c565b9150611bbb8261240b565b604082019050919050565b6000611bd360238361221c565b9150611bde8261245a565b604082019050919050565b6000611bf660148361221c565b9150611c01826124a9565b602082019050919050565b6000611c1960268361221c565b9150611c24826124d2565b604082019050919050565b6000611c3c60228361221c565b9150611c4782612521565b604082019050919050565b6000611c5f601d8361221c565b9150611c6a82612570565b602082019050919050565b6000611c8260268361221c565b9150611c8d82612599565b604082019050919050565b6000611ca560148361221c565b9150611cb0826125e8565b602082019050919050565b6000611cc860108361221c565b9150611cd382612611565b602082019050919050565b6000611ceb60288361221c565b9150611cf68261263a565b604082019050919050565b6000611d0e60208361221c565b9150611d1982612689565b602082019050919050565b6000611d3160398361221c565b9150611d3c826126b2565b604082019050919050565b6000611d5460438361221c565b9150611d5f82612701565b606082019050919050565b6000611d7760358361221c565b9150611d8282612776565b604082019050919050565b6000611d9a60338361221c565b9150611da5826127c5565b604082019050919050565b6000611dbd60258361221c565b9150611dc882612814565b604082019050919050565b6000611de060368361221c565b9150611deb82612863565b604082019050919050565b6000611e0360248361221c565b9150611e0e826128b2565b604082019050919050565b6000611e2660208361221c565b9150611e3182612901565b602082019050919050565b6000611e4960218361221c565b9150611e548261292a565b604082019050919050565b6000611e6c60258361221c565b9150611e7782612979565b604082019050919050565b6000611e8f601f8361221c565b9150611e9a826129c8565b602082019050919050565b611eae8161231b565b82525050565b611ebd81612325565b82525050565b6000602082019050611ed86000830184611b4c565b92915050565b6000602082019050611ef36000830184611b5b565b92915050565b60006020820190508181036000830152611f138184611b6a565b905092915050565b60006020820190508181036000830152611f3481611ba3565b9050919050565b60006020820190508181036000830152611f5481611bc6565b9050919050565b60006020820190508181036000830152611f7481611be9565b9050919050565b60006020820190508181036000830152611f9481611c0c565b9050919050565b60006020820190508181036000830152611fb481611c2f565b9050919050565b60006020820190508181036000830152611fd481611c52565b9050919050565b60006020820190508181036000830152611ff481611c75565b9050919050565b6000602082019050818103600083015261201481611c98565b9050919050565b6000602082019050818103600083015261203481611cbb565b9050919050565b6000602082019050818103600083015261205481611cde565b9050919050565b6000602082019050818103600083015261207481611d01565b9050919050565b6000602082019050818103600083015261209481611d24565b9050919050565b600060208201905081810360008301526120b481611d47565b9050919050565b600060208201905081810360008301526120d481611d6a565b9050919050565b600060208201905081810360008301526120f481611d8d565b9050919050565b6000602082019050818103600083015261211481611db0565b9050919050565b6000602082019050818103600083015261213481611dd3565b9050919050565b6000602082019050818103600083015261215481611df6565b9050919050565b6000602082019050818103600083015261217481611e19565b9050919050565b6000602082019050818103600083015261219481611e3c565b9050919050565b600060208201905081810360008301526121b481611e5f565b9050919050565b600060208201905081810360008301526121d481611e82565b9050919050565b60006020820190506121f06000830184611ea5565b92915050565b600060208201905061220b6000830184611eb4565b92915050565b600081519050919050565b600082825260208201905092915050565b60006122388261231b565b91506122438361231b565b9250827fffffffffffffffffffffffffffffffffffffffffffffffffffffffffffffffff0382111561227857612277612397565b5b828201905092915050565b600061228e8261231b565b91506122998361231b565b9250817fffffffffffffffffffffffffffffffffffffffffffffffffffffffffffffffff04831182151516156122d2576122d1612397565b5b828202905092915050565b60006122e8826122fb565b9050919050565b60008115159050919050565b600073ffffffffffffffffffffffffffffffffffffffff82169050919050565b6000819050919050565b600060ff82169050919050565b60005b83811015612350578082015181840152602081019050612335565b8381111561235f576000848401525b50505050565b6000600282049050600182168061237d57607f821691505b60208210811415612391576123906123c6565b5b50919050565b7f4e487b7100000000000000000000000000000000000000000000000000000000600052601160045260246000fd5b7f4e487b7100000000000000000000000000000000000000000000000000000000600052602260045260246000fd5b600080fd5b6000601f19601f8301169050919050565b7f4552433230546f6b656e3a20676976656e20626c61636b4c697374416464726560008201527f7373206973206e6f7420696e20626c61636b6c69737400000000000000000000602082015250565b7f45524332303a207472616e7366657220746f20746865207a65726f206164647260008201527f6573730000000000000000000000000000000000000000000000000000000000602082015250565b7f5061757361626c653a206e6f7420706175736564000000000000000000000000600082015250565b7f4f776e61626c653a206e6577206f776e657220697320746865207a65726f206160008201527f6464726573730000000000000000000000000000000000000000000000000000602082015250565b7f45524332303a20617070726f766520746f20746865207a65726f20616464726560008201527f7373000000000000000000000000000000000000000000000000000000000000602082015250565b7f45524332303a20696e73756666696369656e7420616c6c6f77616e6365000000600082015250565b7f45524332303a207472616e7366657220616d6f756e742065786365656473206260008201527f616c616e63650000000000000000000000000000000000000000000000000000602082015250565b7f4661696c656420746f2073656e64204574686572000000000000000000000000600082015250565b7f5061757361626c653a2070617573656400000000000000000000000000000000600082015250565b7f4552433230546f6b656e3a2054686973206164647265737320697320696e206260008201527f6c61636b6c697374000000000000000000000000000000000000000000000000602082015250565b7f4f776e61626c653a2063616c6c6572206973206e6f7420746865206f776e6572600082015250565b7f4552433230546f6b656e3a20676976656e20626c61636b4c697374416464726560008201527f737320697320616c726561647920626c61636b6c697374656400000000000000602082015250565b7f4552433230546f6b656e3a206e6577546f6b656e50726963652069732063616e60008201527f206e6f742062652073616d652061732063757272656e7420746f6b656e50726960208201527f63652e0000000000000000000000000000000000000000000000000000000000604082015250565b7f4552433230546f6b656e3a20626c61636b4c697374416464726573732063616e60008201527f206e6f74206265205a65726f20416464726573732e0000000000000000000000602082015250565b7f4552433230546f6b656e3a2043616e6e6f74206d696e74204552433230546f6b60008201527f656e20746f205a65726f20416464726573732e00000000000000000000000000602082015250565b7f45524332303a207472616e736665722066726f6d20746865207a65726f20616460008201527f6472657373000000000000000000000000000000000000000000000000000000602082015250565b7f4552433230546f6b656e3a2043616e6e6f742061697244726f7020455243323060008201527f546f6b656e20746f205a65726f20416464726573732e00000000000000000000602082015250565b7f45524332303a20617070726f76652066726f6d20746865207a65726f2061646460008201527f7265737300000000000000000000000000000000000000000000000000000000602082015250565b7f4552433230546f6b656e3a20496e73756666696369656e742062616c616e6365600082015250565b7f4552433230546f6b656e3a20496e73756666696369656e742062616c616e636560008201527f2e00000000000000000000000000000000000000000000000000000000000000602082015250565b7f45524332303a2064656372656173656420616c6c6f77616e63652062656c6f7760008201527f207a65726f000000000000000000000000000000000000000000000000000000602082015250565b7f45524332303a206d696e7420746f20746865207a65726f206164647265737300600082015250565b6129fa816122dd565b8114612a0557600080fd5b50565b612a118161231b565b8114612a1c57600080fd5b5056fea264697066735822122080edde275ca76484d6df7350d5fab1fb901021747c1a490767447d2ee954018964736f6c63430008070033",
  "immutableReferences": {},
  "source": "// SPDX-License-Identifier: UNLICENSED\npragma solidity ^0.8.7;\n\n/**\n* @title A ERC20Token contract\n* @author Systango team\n* @notice Serves as a fungible token\n* @dev Inherits the OpenZepplin ERC20 implentation\n */\nimport \"@openzeppelin/contracts/token/ERC20/ERC20.sol\";\nimport \"@openzeppelin/contracts/security/Pausable.sol\";\nimport \"@openzeppelin/contracts/access/Ownable.sol\";\n\nimport \"./IERC20Token.sol\";\nimport \"./BlackList.sol\";\n\ncontract ERC20Token is ERC20, Pausable, Ownable, IERC20Token, BlackList{\n    \n  \n    /**\n        @notice Price of ERC20 Token\n     */\n    uint256 public tokenPrice;\n\n    // Zero Address\n    address constant ZERO_ADDRESS = address(0);\n\n    /**\n     * @dev Sets the values for {name}, {symbol} and {_tokenPrice}\n     * @custom:info The default value of {decimals} is 18\n     * @custom:info name and symbol values are immutable: they can only be set once during construction\n     */\n    constructor(string memory name, string memory symbol,uint256 _tokenPrice) \n        ERC20(name, symbol) \n    {\n        tokenPrice = _tokenPrice;\n    }\n\n    /**\n    * @dev This is the mint function. It is used for minting `amount` ERC20 tokens to the `to` address\n    * @dev Only non-blacklisted user can call this function\n    * @param to The address to be token minted\n    * @param amount Number of the ERC20 tokens to be minted\n    */\n    function mint(address to, uint256 amount) external payable override whenNotPaused whenNotBlackListedUser(msg.sender) whenNotBlackListedUser(to) {\n        require(to != ZERO_ADDRESS, \"ERC20Token: Cannot mint ERC20Token to Zero Address.\");\n        require(msg.value >= tokenPrice * amount,\"ERC20Token: Insufficient balance.\");\n        _mint(to, amount);\n    }\n\n    /**\n    * @notice airDrop is use to put the ERC20 tokens to given address\n    * @dev This is the airDrop function. It is used by the owner to airdrop `amount` number of ERC20 tokens to the `to` address respectively.\n    * @dev Only the owner can call this function\n    * @param to The address to be airdropped\n    * @param amount The amount of random tokens to be air dropped respectively\n    */\n    function airDrop(address to, uint256 amount) external override onlyOwner whenNotPaused{\n        require(to != ZERO_ADDRESS, \"ERC20Token: Cannot airDrop ERC20Token to Zero Address.\");\n        _mint(to, amount);\n    }\n\n    /**\n    * @notice withdraw is use to take out all the contract balance into owner account\n    * @dev This function would withdraw all the contract balance into owner's address\n    * @dev Only the owner can call this function\n    */\n    function withdraw() external override onlyOwner {\n        require(getContractBalance() > 0, \"ERC20Token: Insufficient balance\");\n        address payable _to = payable(msg.sender);\n        bool sent = _to.send(getContractBalance());\n        require(sent, \"Failed to send Ether\");\n    }\n\n    /**\n    * @notice addToBlackList is use to add the address into blacklist\n    * @dev This function would add an address to the blacklist mapping\n    * @dev Only the owner can call this function\n    * @param blackListAddress The account to be added to blacklist\n    */\n    function addToBlackList(address blackListAddress) external override onlyOwner whenNotPaused {\n        require(blackListAddress != ZERO_ADDRESS, \"ERC20Token: blackListAddress can not be Zero Address.\");\n        require(!_isBlackListUser(blackListAddress), \"ERC20Token: given blackListAddress is already blacklisted\");\n        _addToBlackList(blackListAddress);\n    \n    }\n\n    /**\n     * @notice removeFromBlackList is use to remove the blacklisted user.\n     * @dev This function would remove an address from the blacklist mapping.\n     * @dev Only the owner can call this function.\n     * @param blackListAddress The account to be removed from blacklist.\n     */\n    function removeFromBlackList(address blackListAddress) external override onlyOwner whenNotPaused {\n        require(blackListAddress != ZERO_ADDRESS, \"ERC20Token: blackListAddress can not be Zero Address.\");\n        require(_isBlackListUser(blackListAddress), \"ERC20Token: given blackListAddress is not in blacklist\");\n        _removeFromBlackList(blackListAddress);\n    }\n\n    /**\n     * @notice updateTokenPrice is use to update the token price\n     * @param newTokenPrice is updated token price in wei\n     * @dev Returns the contract balance.\n     * @dev Only the owner can call this function.\n     */\n    function updateTokenPrice(uint256 newTokenPrice) external override onlyOwner {\n        require(tokenPrice != newTokenPrice, \"ERC20Token: newTokenPrice is can not be same as current tokenPrice.\");\n        tokenPrice = newTokenPrice;\n    }\n\n    /**\n     * @notice getContractBalance is use to check contract balance\n     * @dev Returns the contract balance\n     * @return balance Contract balance in wei\n     */\n    function getContractBalance() public view returns (uint256 balance) {\n        balance = address(this).balance;\n    }\n\n    /**\n     * @dev to pause the contract.\n     * @dev Only the owner can call this function.\n     */\n    function pause() external override onlyOwner {\n        _pause();\n    }\n\n    /**\n     * @dev to unpause the contract.\n     * @dev Only the owner can call this function.\n     */\n    function unpause() external override onlyOwner {\n        _unpause();\n    }\n}\n",
  "sourcePath": "/home/ubox141/Desktop/Blockchain Work'/ERC20-BoilerPlate/contracts/ERC20Token.sol",
  "compiler": {
    "name": "solc",
    "version": "0.8.7+commit.e28d00a7.Emscripten.clang"
  },
  "schemaVersion": "3.4.7",
  "updatedAt": "2022-10-13T12:47:44.347Z",
  "networkType": "ethereum",
  "devdoc": {
    "kind": "dev",
    "methods": {
      "addToBlackList(address)": {
        "details": "This function would add an address to the blacklist mappingOnly the owner can call this function",
        "params": {
          "blackListAddress": "The account to be added to blacklist"
        }
      },
      "airDrop(address,uint256)": {
        "details": "This is the airDrop function. It is used by the owner to airdrop `amount` number of ERC20 tokens to the `to` address respectively.Only the owner can call this function",
        "params": {
          "amount": "The amount of random tokens to be air dropped respectively",
          "to": "The address to be airdropped"
        }
      },
      "allowance(address,address)": {
        "details": "See {IERC20-allowance}."
      },
      "approve(address,uint256)": {
        "details": "See {IERC20-approve}. NOTE: If `amount` is the maximum `uint256`, the allowance is not updated on `transferFrom`. This is semantically equivalent to an infinite approval. Requirements: - `spender` cannot be the zero address."
      },
      "balanceOf(address)": {
        "details": "See {IERC20-balanceOf}."
      },
      "constructor": {
        "custom:info": "The default value of {decimals} is 18name and symbol values are immutable: they can only be set once during construction",
        "details": "Sets the values for {name}, {symbol} and {_tokenPrice}"
      },
      "decimals()": {
        "details": "Returns the number of decimals used to get its user representation. For example, if `decimals` equals `2`, a balance of `505` tokens should be displayed to a user as `5.05` (`505 / 10 ** 2`). Tokens usually opt for a value of 18, imitating the relationship between Ether and Wei. This is the value {ERC20} uses, unless this function is overridden; NOTE: This information is only used for _display_ purposes: it in no way affects any of the arithmetic of the contract, including {IERC20-balanceOf} and {IERC20-transfer}."
      },
      "decreaseAllowance(address,uint256)": {
        "details": "Atomically decreases the allowance granted to `spender` by the caller. This is an alternative to {approve} that can be used as a mitigation for problems described in {IERC20-approve}. Emits an {Approval} event indicating the updated allowance. Requirements: - `spender` cannot be the zero address. - `spender` must have allowance for the caller of at least `subtractedValue`."
      },
      "getContractBalance()": {
        "details": "Returns the contract balance",
        "returns": {
          "balance": "Contract balance in wei"
        }
      },
      "increaseAllowance(address,uint256)": {
        "details": "Atomically increases the allowance granted to `spender` by the caller. This is an alternative to {approve} that can be used as a mitigation for problems described in {IERC20-approve}. Emits an {Approval} event indicating the updated allowance. Requirements: - `spender` cannot be the zero address."
      },
      "mint(address,uint256)": {
        "details": "This is the mint function. It is used for minting `amount` ERC20 tokens to the `to` addressOnly non-blacklisted user can call this function",
        "params": {
          "amount": "Number of the ERC20 tokens to be minted",
          "to": "The address to be token minted"
        }
      },
      "name()": {
        "details": "Returns the name of the token."
      },
      "owner()": {
        "details": "Returns the address of the current owner."
      },
      "pause()": {
        "details": "to pause the contract.Only the owner can call this function."
      },
      "paused()": {
        "details": "Returns true if the contract is paused, and false otherwise."
      },
      "removeFromBlackList(address)": {
        "details": "This function would remove an address from the blacklist mapping.Only the owner can call this function.",
        "params": {
          "blackListAddress": "The account to be removed from blacklist."
        }
      },
      "renounceOwnership()": {
        "details": "Leaves the contract without owner. It will not be possible to call `onlyOwner` functions anymore. Can only be called by the current owner. NOTE: Renouncing ownership will leave the contract without an owner, thereby removing any functionality that is only available to the owner."
      },
      "symbol()": {
        "details": "Returns the symbol of the token, usually a shorter version of the name."
      },
      "totalSupply()": {
        "details": "See {IERC20-totalSupply}."
      },
      "transfer(address,uint256)": {
        "details": "See {IERC20-transfer}. Requirements: - `to` cannot be the zero address. - the caller must have a balance of at least `amount`."
      },
      "transferFrom(address,address,uint256)": {
        "details": "See {IERC20-transferFrom}. Emits an {Approval} event indicating the updated allowance. This is not required by the EIP. See the note at the beginning of {ERC20}. NOTE: Does not update the allowance if the current allowance is the maximum `uint256`. Requirements: - `from` and `to` cannot be the zero address. - `from` must have a balance of at least `amount`. - the caller must have allowance for ``from``'s tokens of at least `amount`."
      },
      "transferOwnership(address)": {
        "details": "Transfers ownership of the contract to a new account (`newOwner`). Can only be called by the current owner."
      },
      "unpause()": {
        "details": "to unpause the contract.Only the owner can call this function."
      },
      "updateTokenPrice(uint256)": {
        "details": "Returns the contract balance.Only the owner can call this function.",
        "params": {
          "newTokenPrice": "is updated token price in wei"
        }
      },
      "withdraw()": {
        "details": "This function would withdraw all the contract balance into owner's addressOnly the owner can call this function"
      }
    },
    "version": 1
  },
  "userdoc": {
    "events": {
      "AddedToBlackList(address)": {
        "notice": "Event to trigger the addition of address to blacklist mapping "
      },
      "RemovedFromBlackList(address)": {
        "notice": "Event to trigger the removal of address from blacklist mapping "
      }
    },
    "kind": "user",
    "methods": {
      "addToBlackList(address)": {
        "notice": "addToBlackList is use to add the address into blacklist"
      },
      "airDrop(address,uint256)": {
        "notice": "airDrop is use to put the ERC20 tokens to given address"
      },
      "blackList(address)": {
        "notice": "Mapping between the address and boolean for blacklisting "
      },
      "getContractBalance()": {
        "notice": "getContractBalance is use to check contract balance"
      },
      "removeFromBlackList(address)": {
        "notice": "removeFromBlackList is use to remove the blacklisted user."
      },
      "tokenPrice()": {
        "notice": "Price of ERC20 Token"
      },
      "updateTokenPrice(uint256)": {
        "notice": "updateTokenPrice is use to update the token price"
      },
      "withdraw()": {
        "notice": "withdraw is use to take out all the contract balance into owner account"
      }
    },
    "version": 1
  }
}