{
  "contractName": "ERC20Token",
  "abi": [
    {
      "inputs": [
        {
          "internalType": "string",
          "name": "name",
          "type": "string"
        },
        {
          "internalType": "string",
          "name": "symbol",
          "type": "string"
        },
        {
          "internalType": "uint256",
          "name": "_tokenPrice",
          "type": "uint256"
        }
      ],
      "stateMutability": "nonpayable",
      "type": "constructor"
    },
    {
      "anonymous": false,
      "inputs": [
        {
          "indexed": false,
          "internalType": "address",
          "name": "_user",
          "type": "address"
        }
      ],
      "name": "AddedToBlackList",
      "type": "event"
    },
    {
      "anonymous": false,
      "inputs": [
        {
          "indexed": true,
          "internalType": "address",
          "name": "owner",
          "type": "address"
        },
        {
          "indexed": true,
          "internalType": "address",
          "name": "spender",
          "type": "address"
        },
        {
          "indexed": false,
          "internalType": "uint256",
          "name": "value",
          "type": "uint256"
        }
      ],
      "name": "Approval",
      "type": "event"
    },
    {
      "anonymous": false,
      "inputs": [
        {
          "indexed": true,
          "internalType": "address",
          "name": "previousOwner",
          "type": "address"
        },
        {
          "indexed": true,
          "internalType": "address",
          "name": "newOwner",
          "type": "address"
        }
      ],
      "name": "OwnershipTransferred",
      "type": "event"
    },
    {
      "anonymous": false,
      "inputs": [
        {
          "indexed": false,
          "internalType": "address",
          "name": "account",
          "type": "address"
        }
      ],
      "name": "Paused",
      "type": "event"
    },
    {
      "anonymous": false,
      "inputs": [
        {
          "indexed": false,
          "internalType": "address",
          "name": "_user",
          "type": "address"
        }
      ],
      "name": "RemovedFromBlackList",
      "type": "event"
    },
    {
      "anonymous": false,
      "inputs": [
        {
          "indexed": true,
          "internalType": "address",
          "name": "from",
          "type": "address"
        },
        {
          "indexed": true,
          "internalType": "address",
          "name": "to",
          "type": "address"
        },
        {
          "indexed": false,
          "internalType": "uint256",
          "name": "value",
          "type": "uint256"
        }
      ],
      "name": "Transfer",
      "type": "event"
    },
    {
      "anonymous": false,
      "inputs": [
        {
          "indexed": false,
          "internalType": "address",
          "name": "account",
          "type": "address"
        }
      ],
      "name": "Unpaused",
      "type": "event"
    },
    {
      "inputs": [
        {
          "internalType": "address",
          "name": "owner",
          "type": "address"
        },
        {
          "internalType": "address",
          "name": "spender",
          "type": "address"
        }
      ],
      "name": "allowance",
      "outputs": [
        {
          "internalType": "uint256",
          "name": "",
          "type": "uint256"
        }
      ],
      "stateMutability": "view",
      "type": "function",
      "constant": true
    },
    {
      "inputs": [
        {
          "internalType": "address",
          "name": "spender",
          "type": "address"
        },
        {
          "internalType": "uint256",
          "name": "amount",
          "type": "uint256"
        }
      ],
      "name": "approve",
      "outputs": [
        {
          "internalType": "bool",
          "name": "",
          "type": "bool"
        }
      ],
      "stateMutability": "nonpayable",
      "type": "function"
    },
    {
      "inputs": [
        {
          "internalType": "address",
          "name": "account",
          "type": "address"
        }
      ],
      "name": "balanceOf",
      "outputs": [
        {
          "internalType": "uint256",
          "name": "",
          "type": "uint256"
        }
      ],
      "stateMutability": "view",
      "type": "function",
      "constant": true
    },
    {
      "inputs": [
        {
          "internalType": "address",
          "name": "",
          "type": "address"
        }
      ],
      "name": "blackList",
      "outputs": [
        {
          "internalType": "bool",
          "name": "",
          "type": "bool"
        }
      ],
      "stateMutability": "view",
      "type": "function",
      "constant": true
    },
    {
      "inputs": [],
      "name": "decimals",
      "outputs": [
        {
          "internalType": "uint8",
          "name": "",
          "type": "uint8"
        }
      ],
      "stateMutability": "view",
      "type": "function",
      "constant": true
    },
    {
      "inputs": [
        {
          "internalType": "address",
          "name": "spender",
          "type": "address"
        },
        {
          "internalType": "uint256",
          "name": "subtractedValue",
          "type": "uint256"
        }
      ],
      "name": "decreaseAllowance",
      "outputs": [
        {
          "internalType": "bool",
          "name": "",
          "type": "bool"
        }
      ],
      "stateMutability": "nonpayable",
      "type": "function"
    },
    {
      "inputs": [
        {
          "internalType": "address",
          "name": "spender",
          "type": "address"
        },
        {
          "internalType": "uint256",
          "name": "addedValue",
          "type": "uint256"
        }
      ],
      "name": "increaseAllowance",
      "outputs": [
        {
          "internalType": "bool",
          "name": "",
          "type": "bool"
        }
      ],
      "stateMutability": "nonpayable",
      "type": "function"
    },
    {
      "inputs": [],
      "name": "name",
      "outputs": [
        {
          "internalType": "string",
          "name": "",
          "type": "string"
        }
      ],
      "stateMutability": "view",
      "type": "function",
      "constant": true
    },
    {
      "inputs": [],
      "name": "owner",
      "outputs": [
        {
          "internalType": "address",
          "name": "",
          "type": "address"
        }
      ],
      "stateMutability": "view",
      "type": "function",
      "constant": true
    },
    {
      "inputs": [],
      "name": "paused",
      "outputs": [
        {
          "internalType": "bool",
          "name": "",
          "type": "bool"
        }
      ],
      "stateMutability": "view",
      "type": "function",
      "constant": true
    },
    {
      "inputs": [],
      "name": "renounceOwnership",
      "outputs": [],
      "stateMutability": "nonpayable",
      "type": "function"
    },
    {
      "inputs": [],
      "name": "symbol",
      "outputs": [
        {
          "internalType": "string",
          "name": "",
          "type": "string"
        }
      ],
      "stateMutability": "view",
      "type": "function",
      "constant": true
    },
    {
      "inputs": [],
      "name": "tokenPrice",
      "outputs": [
        {
          "internalType": "uint256",
          "name": "",
          "type": "uint256"
        }
      ],
      "stateMutability": "view",
      "type": "function",
      "constant": true
    },
    {
      "inputs": [],
      "name": "totalSupply",
      "outputs": [
        {
          "internalType": "uint256",
          "name": "",
          "type": "uint256"
        }
      ],
      "stateMutability": "view",
      "type": "function",
      "constant": true
    },
    {
      "inputs": [
        {
          "internalType": "address",
          "name": "to",
          "type": "address"
        },
        {
          "internalType": "uint256",
          "name": "amount",
          "type": "uint256"
        }
      ],
      "name": "transfer",
      "outputs": [
        {
          "internalType": "bool",
          "name": "",
          "type": "bool"
        }
      ],
      "stateMutability": "nonpayable",
      "type": "function"
    },
    {
      "inputs": [
        {
          "internalType": "address",
          "name": "from",
          "type": "address"
        },
        {
          "internalType": "address",
          "name": "to",
          "type": "address"
        },
        {
          "internalType": "uint256",
          "name": "amount",
          "type": "uint256"
        }
      ],
      "name": "transferFrom",
      "outputs": [
        {
          "internalType": "bool",
          "name": "",
          "type": "bool"
        }
      ],
      "stateMutability": "nonpayable",
      "type": "function"
    },
    {
      "inputs": [
        {
          "internalType": "address",
          "name": "newOwner",
          "type": "address"
        }
      ],
      "name": "transferOwnership",
      "outputs": [],
      "stateMutability": "nonpayable",
      "type": "function"
    },
    {
      "inputs": [
        {
          "internalType": "address",
          "name": "to",
          "type": "address"
        },
        {
          "internalType": "uint256",
          "name": "amount",
          "type": "uint256"
        }
      ],
      "name": "mint",
      "outputs": [],
      "stateMutability": "payable",
      "type": "function",
      "payable": true
    },
    {
      "inputs": [
        {
          "internalType": "address",
          "name": "to",
          "type": "address"
        },
        {
          "internalType": "uint256",
          "name": "amount",
          "type": "uint256"
        }
      ],
      "name": "airDrop",
      "outputs": [],
      "stateMutability": "nonpayable",
      "type": "function"
    },
    {
      "inputs": [],
      "name": "withdraw",
      "outputs": [],
      "stateMutability": "nonpayable",
      "type": "function"
    },
    {
      "inputs": [
        {
          "internalType": "address",
          "name": "blackListAddress",
          "type": "address"
        }
      ],
      "name": "addToBlackList",
      "outputs": [],
      "stateMutability": "nonpayable",
      "type": "function"
    },
    {
      "inputs": [
        {
          "internalType": "address",
          "name": "blackListAddress",
          "type": "address"
        }
      ],
      "name": "removeFromBlackList",
      "outputs": [],
      "stateMutability": "nonpayable",
      "type": "function"
    },
    {
      "inputs": [
        {
          "internalType": "uint256",
          "name": "newTokenPrice",
          "type": "uint256"
        }
      ],
      "name": "updateTokenPrice",
      "outputs": [],
      "stateMutability": "nonpayable",
      "type": "function"
    },
    {
      "inputs": [],
      "name": "getContractBalance",
      "outputs": [
        {
          "internalType": "uint256",
          "name": "balance",
          "type": "uint256"
        }
      ],
      "stateMutability": "view",
      "type": "function",
      "constant": true
    },
    {
      "inputs": [],
      "name": "pause",
      "outputs": [],
      "stateMutability": "nonpayable",
      "type": "function"
    },
    {
      "inputs": [],
      "name": "unpause",
      "outputs": [],
      "stateMutability": "nonpayable",
      "type": "function"
    }
  ],
  "bytecode": "0x60806040523480156200001157600080fd5b506040516200311e3803806200311e833981810160405281019062000037919062000346565b828281600390816200004a919062000621565b5080600490816200005c919062000621565b5050506000600560006101000a81548160ff0219169083151502179055506200009a6200008e620000aa60201b60201c565b620000b260201b60201c565b8060078190555050505062000708565b600033905090565b6000600560019054906101000a900473ffffffffffffffffffffffffffffffffffffffff16905081600560016101000a81548173ffffffffffffffffffffffffffffffffffffffff021916908373ffffffffffffffffffffffffffffffffffffffff1602179055508173ffffffffffffffffffffffffffffffffffffffff168173ffffffffffffffffffffffffffffffffffffffff167f8be0079c531659141344cd1fd0a4f28419497f9722a3daafe3b4186f6b6457e060405160405180910390a35050565b6000604051905090565b600080fd5b600080fd5b600080fd5b600080fd5b6000601f19601f8301169050919050565b7f4e487b7100000000000000000000000000000000000000000000000000000000600052604160045260246000fd5b620001e18262000196565b810181811067ffffffffffffffff82111715620002035762000202620001a7565b5b80604052505050565b60006200021862000178565b9050620002268282620001d6565b919050565b600067ffffffffffffffff821115620002495762000248620001a7565b5b620002548262000196565b9050602081019050919050565b60005b838110156200028157808201518184015260208101905062000264565b60008484015250505050565b6000620002a46200029e846200022b565b6200020c565b905082815260208101848484011115620002c357620002c262000191565b5b620002d084828562000261565b509392505050565b600082601f830112620002f057620002ef6200018c565b5b8151620003028482602086016200028d565b91505092915050565b6000819050919050565b62000320816200030b565b81146200032c57600080fd5b50565b600081519050620003408162000315565b92915050565b60008060006060848603121562000362576200036162000182565b5b600084015167ffffffffffffffff81111562000383576200038262000187565b5b6200039186828701620002d8565b935050602084015167ffffffffffffffff811115620003b557620003b462000187565b5b620003c386828701620002d8565b9250506040620003d6868287016200032f565b9150509250925092565b600081519050919050565b7f4e487b7100000000000000000000000000000000000000000000000000000000600052602260045260246000fd5b600060028204905060018216806200043357607f821691505b602082108103620004495762000448620003eb565b5b50919050565b60008190508160005260206000209050919050565b60006020601f8301049050919050565b600082821b905092915050565b600060088302620004b37fffffffffffffffffffffffffffffffffffffffffffffffffffffffffffffffff8262000474565b620004bf868362000474565b95508019841693508086168417925050509392505050565b6000819050919050565b600062000502620004fc620004f6846200030b565b620004d7565b6200030b565b9050919050565b6000819050919050565b6200051e83620004e1565b620005366200052d8262000509565b84845462000481565b825550505050565b600090565b6200054d6200053e565b6200055a81848462000513565b505050565b5b8181101562000582576200057660008262000543565b60018101905062000560565b5050565b601f821115620005d1576200059b816200044f565b620005a68462000464565b81016020851015620005b6578190505b620005ce620005c58562000464565b8301826200055f565b50505b505050565b600082821c905092915050565b6000620005f660001984600802620005d6565b1980831691505092915050565b6000620006118383620005e3565b9150826002028217905092915050565b6200062c82620003e0565b67ffffffffffffffff811115620006485762000647620001a7565b5b6200065482546200041a565b6200066182828562000586565b600060209050601f83116001811462000699576000841562000684578287015190505b62000690858262000603565b86555062000700565b601f198416620006a9866200044f565b60005b82811015620006d357848901518255600182019150602085019450602081019050620006ac565b86831015620006f35784890151620006ef601f891682620005e3565b8355505b6001600288020188555050505b505050505050565b612a0680620007186000396000f3fe6080604052600436106101815760003560e01c80635c975abb116100d15780638456cb591161008a578063a457c2d711610064578063a457c2d71461052b578063a9059cbb14610568578063dd62ed3e146105a5578063f2fde38b146105e257610181565b80638456cb59146104be5780638da5cb5b146104d557806395d89b411461050057610181565b80635c975abb146103c0578063676c0d77146103eb5780636f9fb98a1461041457806370a082311461043f578063715018a61461047c5780637ff9b5961461049357610181565b8063395093511161013e57806340c10f191161011857806340c10f1914610315578063417c73a7146103315780634838d1651461035a5780634a49ac4c1461039757610181565b806339509351146102aa5780633ccfd60b146102e75780633f4ba83a146102fe57610181565b8063045f78501461018657806306fdde03146101af578063095ea7b3146101da57806318160ddd1461021757806323b872dd14610242578063313ce5671461027f575b600080fd5b34801561019257600080fd5b506101ad60048036038101906101a89190611a83565b61060b565b005b3480156101bb57600080fd5b506101c4610698565b6040516101d19190611b53565b60405180910390f35b3480156101e657600080fd5b5061020160048036038101906101fc9190611a83565b61072a565b60405161020e9190611b90565b60405180910390f35b34801561022357600080fd5b5061022c61074d565b6040516102399190611bba565b60405180910390f35b34801561024e57600080fd5b5061026960048036038101906102649190611bd5565b610757565b6040516102769190611b90565b60405180910390f35b34801561028b57600080fd5b50610294610786565b6040516102a19190611c44565b60405180910390f35b3480156102b657600080fd5b506102d160048036038101906102cc9190611a83565b61078f565b6040516102de9190611b90565b60405180910390f35b3480156102f357600080fd5b506102fc6107c6565b005b34801561030a57600080fd5b506103136108a1565b005b61032f600480360381019061032a9190611a83565b6108b3565b005b34801561033d57600080fd5b5061035860048036038101906103539190611c5f565b610a1e565b005b34801561036657600080fd5b50610381600480360381019061037c9190611c5f565b610af3565b60405161038e9190611b90565b60405180910390f35b3480156103a357600080fd5b506103be60048036038101906103b99190611c5f565b610b13565b005b3480156103cc57600080fd5b506103d5610be7565b6040516103e29190611b90565b60405180910390f35b3480156103f757600080fd5b50610412600480360381019061040d9190611c8c565b610bfe565b005b34801561042057600080fd5b50610429610c54565b6040516104369190611bba565b60405180910390f35b34801561044b57600080fd5b5061046660048036038101906104619190611c5f565b610c5c565b6040516104739190611bba565b60405180910390f35b34801561048857600080fd5b50610491610ca4565b005b34801561049f57600080fd5b506104a8610cb8565b6040516104b59190611bba565b60405180910390f35b3480156104ca57600080fd5b506104d3610cbe565b005b3480156104e157600080fd5b506104ea610cd0565b6040516104f79190611cc8565b60405180910390f35b34801561050c57600080fd5b50610515610cfa565b6040516105229190611b53565b60405180910390f35b34801561053757600080fd5b50610552600480360381019061054d9190611a83565b610d8c565b60405161055f9190611b90565b60405180910390f35b34801561057457600080fd5b5061058f600480360381019061058a9190611a83565b610e03565b60405161059c9190611b90565b60405180910390f35b3480156105b157600080fd5b506105cc60048036038101906105c79190611ce3565b610e26565b6040516105d99190611bba565b60405180910390f35b3480156105ee57600080fd5b5061060960048036038101906106049190611c5f565b610ead565b005b610613610f30565b61061b610fae565b600073ffffffffffffffffffffffffffffffffffffffff168273ffffffffffffffffffffffffffffffffffffffff160361068a576040517f08c379a000000000000000000000000000000000000000000000000000000000815260040161068190611d95565b60405180910390fd5b6106948282610ff8565b5050565b6060600380546106a790611de4565b80601f01602080910402602001604051908101604052809291908181526020018280546106d390611de4565b80156107205780601f106106f557610100808354040283529160200191610720565b820191906000526020600020905b81548152906001019060200180831161070357829003601f168201915b5050505050905090565b600080610735611157565b905061074281858561115f565b600191505092915050565b6000600254905090565b600080610762611157565b905061076f858285611328565b61077a8585856113b4565b60019150509392505050565b60006012905090565b60008061079a611157565b90506107bb8185856107ac8589610e26565b6107b69190611e44565b61115f565b600191505092915050565b6107ce610f30565b60006107d8610c54565b11610818576040517f08c379a000000000000000000000000000000000000000000000000000000000815260040161080f90611ec4565b60405180910390fd5b600033905060008173ffffffffffffffffffffffffffffffffffffffff166108fc610841610c54565b9081150290604051600060405180830381858888f1935050505090508061089d576040517f08c379a000000000000000000000000000000000000000000000000000000000815260040161089490611f30565b60405180910390fd5b5050565b6108a9610f30565b6108b1611633565b565b6108bb610fae565b336108c581611696565b15610905576040517f08c379a00000000000000000000000000000000000000000000000000000000081526004016108fc90611fc2565b60405180910390fd5b8261090f81611696565b1561094f576040517f08c379a000000000000000000000000000000000000000000000000000000000815260040161094690611fc2565b60405180910390fd5b600073ffffffffffffffffffffffffffffffffffffffff168473ffffffffffffffffffffffffffffffffffffffff16036109be576040517f08c379a00000000000000000000000000000000000000000000000000000000081526004016109b590612054565b60405180910390fd5b826007546109cc9190612074565b341015610a0e576040517f08c379a0000000000000000000000000000000000000000000000000000000008152600401610a0590612128565b60405180910390fd5b610a188484610ff8565b50505050565b610a26610f30565b610a2e610fae565b600073ffffffffffffffffffffffffffffffffffffffff168173ffffffffffffffffffffffffffffffffffffffff1603610a9d576040517f08c379a0000000000000000000000000000000000000000000000000000000008152600401610a94906121ba565b60405180910390fd5b610aa681611696565b15610ae6576040517f08c379a0000000000000000000000000000000000000000000000000000000008152600401610add9061224c565b60405180910390fd5b610aef816116ec565b5050565b60066020528060005260406000206000915054906101000a900460ff1681565b610b1b610f30565b610b23610fae565b600073ffffffffffffffffffffffffffffffffffffffff168173ffffffffffffffffffffffffffffffffffffffff1603610b92576040517f08c379a0000000000000000000000000000000000000000000000000000000008152600401610b89906121ba565b60405180910390fd5b610b9b81611696565b610bda576040517f08c379a0000000000000000000000000000000000000000000000000000000008152600401610bd1906122de565b60405180910390fd5b610be381611786565b5050565b6000600560009054906101000a900460ff16905090565b610c06610f30565b8060075403610c4a576040517f08c379a0000000000000000000000000000000000000000000000000000000008152600401610c4190612396565b60405180910390fd5b8060078190555050565b600047905090565b60008060008373ffffffffffffffffffffffffffffffffffffffff1673ffffffffffffffffffffffffffffffffffffffff168152602001908152602001600020549050919050565b610cac610f30565b610cb6600061186e565b565b60075481565b610cc6610f30565b610cce611934565b565b6000600560019054906101000a900473ffffffffffffffffffffffffffffffffffffffff16905090565b606060048054610d0990611de4565b80601f0160208091040260200160405190810160405280929190818152602001828054610d3590611de4565b8015610d825780601f10610d5757610100808354040283529160200191610d82565b820191906000526020600020905b815481529060010190602001808311610d6557829003601f168201915b5050505050905090565b600080610d97611157565b90506000610da58286610e26565b905083811015610dea576040517f08c379a0000000000000000000000000000000000000000000000000000000008152600401610de190612428565b60405180910390fd5b610df7828686840361115f565b60019250505092915050565b600080610e0e611157565b9050610e1b8185856113b4565b600191505092915050565b6000600160008473ffffffffffffffffffffffffffffffffffffffff1673ffffffffffffffffffffffffffffffffffffffff16815260200190815260200160002060008373ffffffffffffffffffffffffffffffffffffffff1673ffffffffffffffffffffffffffffffffffffffff16815260200190815260200160002054905092915050565b610eb5610f30565b600073ffffffffffffffffffffffffffffffffffffffff168173ffffffffffffffffffffffffffffffffffffffff1603610f24576040517f08c379a0000000000000000000000000000000000000000000000000000000008152600401610f1b906124ba565b60405180910390fd5b610f2d8161186e565b50565b610f38611157565b73ffffffffffffffffffffffffffffffffffffffff16610f56610cd0565b73ffffffffffffffffffffffffffffffffffffffff1614610fac576040517f08c379a0000000000000000000000000000000000000000000000000000000008152600401610fa390612526565b60405180910390fd5b565b610fb6610be7565b15610ff6576040517f08c379a0000000000000000000000000000000000000000000000000000000008152600401610fed90612592565b60405180910390fd5b565b600073ffffffffffffffffffffffffffffffffffffffff168273ffffffffffffffffffffffffffffffffffffffff1603611067576040517f08c379a000000000000000000000000000000000000000000000000000000000815260040161105e906125fe565b60405180910390fd5b61107360008383611997565b80600260008282546110859190611e44565b92505081905550806000808473ffffffffffffffffffffffffffffffffffffffff1673ffffffffffffffffffffffffffffffffffffffff16815260200190815260200160002060008282546110da9190611e44565b925050819055508173ffffffffffffffffffffffffffffffffffffffff16600073ffffffffffffffffffffffffffffffffffffffff167fddf252ad1be2c89b69c2b068fc378daa952ba7f163c4a11628f55a4df523b3ef8360405161113f9190611bba565b60405180910390a36111536000838361199c565b5050565b600033905090565b600073ffffffffffffffffffffffffffffffffffffffff168373ffffffffffffffffffffffffffffffffffffffff16036111ce576040517f08c379a00000000000000000000000000000000000000000000000000000000081526004016111c590612690565b60405180910390fd5b600073ffffffffffffffffffffffffffffffffffffffff168273ffffffffffffffffffffffffffffffffffffffff160361123d576040517f08c379a000000000000000000000000000000000000000000000000000000000815260040161123490612722565b60405180910390fd5b80600160008573ffffffffffffffffffffffffffffffffffffffff1673ffffffffffffffffffffffffffffffffffffffff16815260200190815260200160002060008473ffffffffffffffffffffffffffffffffffffffff1673ffffffffffffffffffffffffffffffffffffffff168152602001908152602001600020819055508173ffffffffffffffffffffffffffffffffffffffff168373ffffffffffffffffffffffffffffffffffffffff167f8c5be1e5ebec7d5bd14f71427d1e84f3dd0314c0f7b2291e5b200ac8c7c3b9258360405161131b9190611bba565b60405180910390a3505050565b60006113348484610e26565b90507fffffffffffffffffffffffffffffffffffffffffffffffffffffffffffffffff81146113ae57818110156113a0576040517f08c379a00000000000000000000000000000000000000000000000000000000081526004016113979061278e565b60405180910390fd5b6113ad848484840361115f565b5b50505050565b600073ffffffffffffffffffffffffffffffffffffffff168373ffffffffffffffffffffffffffffffffffffffff1603611423576040517f08c379a000000000000000000000000000000000000000000000000000000000815260040161141a90612820565b60405180910390fd5b600073ffffffffffffffffffffffffffffffffffffffff168273ffffffffffffffffffffffffffffffffffffffff1603611492576040517f08c379a0000000000000000000000000000000000000000000000000000000008152600401611489906128b2565b60405180910390fd5b61149d838383611997565b60008060008573ffffffffffffffffffffffffffffffffffffffff1673ffffffffffffffffffffffffffffffffffffffff16815260200190815260200160002054905081811015611523576040517f08c379a000000000000000000000000000000000000000000000000000000000815260040161151a90612944565b60405180910390fd5b8181036000808673ffffffffffffffffffffffffffffffffffffffff1673ffffffffffffffffffffffffffffffffffffffff16815260200190815260200160002081905550816000808573ffffffffffffffffffffffffffffffffffffffff1673ffffffffffffffffffffffffffffffffffffffff16815260200190815260200160002060008282546115b69190611e44565b925050819055508273ffffffffffffffffffffffffffffffffffffffff168473ffffffffffffffffffffffffffffffffffffffff167fddf252ad1be2c89b69c2b068fc378daa952ba7f163c4a11628f55a4df523b3ef8460405161161a9190611bba565b60405180910390a361162d84848461199c565b50505050565b61163b6119a1565b6000600560006101000a81548160ff0219169083151502179055507f5db9ee0a495bf2e6ff9c91a7834c1ba4fdd244a5e8aa4e537bd38aeae4b073aa61167f611157565b60405161168c9190611cc8565b60405180910390a1565b6000600660008373ffffffffffffffffffffffffffffffffffffffff1673ffffffffffffffffffffffffffffffffffffffff16815260200190815260200160002060009054906101000a900460ff169050919050565b60006001600660008473ffffffffffffffffffffffffffffffffffffffff1673ffffffffffffffffffffffffffffffffffffffff16815260200190815260200160002060006101000a81548160ff0219169083151502179055507f83f4fb4e43c8e9d38b6fa4c441afe892be28f9724b9c128fb99dfee430f60e08826040516117759190611cc8565b60405180910390a160019050919050565b600080600660008473ffffffffffffffffffffffffffffffffffffffff1673ffffffffffffffffffffffffffffffffffffffff16815260200190815260200160002060006101000a81548160ff021916908315150217905550600660008373ffffffffffffffffffffffffffffffffffffffff1673ffffffffffffffffffffffffffffffffffffffff16815260200190815260200160002060006101000a81549060ff02191690557fa5d874c36615fb5b3b7b19ec879ee123ce071c81392af0dea8c60f4fcdf186498260405161185d9190611cc8565b60405180910390a160019050919050565b6000600560019054906101000a900473ffffffffffffffffffffffffffffffffffffffff16905081600560016101000a81548173ffffffffffffffffffffffffffffffffffffffff021916908373ffffffffffffffffffffffffffffffffffffffff1602179055508173ffffffffffffffffffffffffffffffffffffffff168173ffffffffffffffffffffffffffffffffffffffff167f8be0079c531659141344cd1fd0a4f28419497f9722a3daafe3b4186f6b6457e060405160405180910390a35050565b61193c610fae565b6001600560006101000a81548160ff0219169083151502179055507f62e78cea01bee320cd4e420270b5ea74000d11b0c9f74754ebdbfc544b05a258611980611157565b60405161198d9190611cc8565b60405180910390a1565b505050565b505050565b6119a9610be7565b6119e8576040517f08c379a00000000000000000000000000000000000000000000000000000000081526004016119df906129b0565b60405180910390fd5b565b600080fd5b600073ffffffffffffffffffffffffffffffffffffffff82169050919050565b6000611a1a826119ef565b9050919050565b611a2a81611a0f565b8114611a3557600080fd5b50565b600081359050611a4781611a21565b92915050565b6000819050919050565b611a6081611a4d565b8114611a6b57600080fd5b50565b600081359050611a7d81611a57565b92915050565b60008060408385031215611a9a57611a996119ea565b5b6000611aa885828601611a38565b9250506020611ab985828601611a6e565b9150509250929050565b600081519050919050565b600082825260208201905092915050565b60005b83811015611afd578082015181840152602081019050611ae2565b60008484015250505050565b6000601f19601f8301169050919050565b6000611b2582611ac3565b611b2f8185611ace565b9350611b3f818560208601611adf565b611b4881611b09565b840191505092915050565b60006020820190508181036000830152611b6d8184611b1a565b905092915050565b60008115159050919050565b611b8a81611b75565b82525050565b6000602082019050611ba56000830184611b81565b92915050565b611bb481611a4d565b82525050565b6000602082019050611bcf6000830184611bab565b92915050565b600080600060608486031215611bee57611bed6119ea565b5b6000611bfc86828701611a38565b9350506020611c0d86828701611a38565b9250506040611c1e86828701611a6e565b9150509250925092565b600060ff82169050919050565b611c3e81611c28565b82525050565b6000602082019050611c596000830184611c35565b92915050565b600060208284031215611c7557611c746119ea565b5b6000611c8384828501611a38565b91505092915050565b600060208284031215611ca257611ca16119ea565b5b6000611cb084828501611a6e565b91505092915050565b611cc281611a0f565b82525050565b6000602082019050611cdd6000830184611cb9565b92915050565b60008060408385031215611cfa57611cf96119ea565b5b6000611d0885828601611a38565b9250506020611d1985828601611a38565b9150509250929050565b7f4552433230546f6b656e3a2043616e6e6f742061697244726f7020455243323060008201527f546f6b656e20746f205a65726f20416464726573732e00000000000000000000602082015250565b6000611d7f603683611ace565b9150611d8a82611d23565b604082019050919050565b60006020820190508181036000830152611dae81611d72565b9050919050565b7f4e487b7100000000000000000000000000000000000000000000000000000000600052602260045260246000fd5b60006002820490506001821680611dfc57607f821691505b602082108103611e0f57611e0e611db5565b5b50919050565b7f4e487b7100000000000000000000000000000000000000000000000000000000600052601160045260246000fd5b6000611e4f82611a4d565b9150611e5a83611a4d565b9250828201905080821115611e7257611e71611e15565b5b92915050565b7f4552433230546f6b656e3a20496e73756666696369656e742062616c616e6365600082015250565b6000611eae602083611ace565b9150611eb982611e78565b602082019050919050565b60006020820190508181036000830152611edd81611ea1565b9050919050565b7f4661696c656420746f2073656e64204574686572000000000000000000000000600082015250565b6000611f1a601483611ace565b9150611f2582611ee4565b602082019050919050565b60006020820190508181036000830152611f4981611f0d565b9050919050565b7f4552433230546f6b656e3a2054686973206164647265737320697320696e206260008201527f6c61636b6c697374000000000000000000000000000000000000000000000000602082015250565b6000611fac602883611ace565b9150611fb782611f50565b604082019050919050565b60006020820190508181036000830152611fdb81611f9f565b9050919050565b7f4552433230546f6b656e3a2043616e6e6f74206d696e74204552433230546f6b60008201527f656e20746f205a65726f20416464726573732e00000000000000000000000000602082015250565b600061203e603383611ace565b915061204982611fe2565b604082019050919050565b6000602082019050818103600083015261206d81612031565b9050919050565b600061207f82611a4d565b915061208a83611a4d565b925082820261209881611a4d565b915082820484148315176120af576120ae611e15565b5b5092915050565b7f4552433230546f6b656e3a20496e73756666696369656e742062616c616e636560008201527f2e00000000000000000000000000000000000000000000000000000000000000602082015250565b6000612112602183611ace565b915061211d826120b6565b604082019050919050565b6000602082019050818103600083015261214181612105565b9050919050565b7f4552433230546f6b656e3a20626c61636b4c697374416464726573732063616e60008201527f206e6f74206265205a65726f20416464726573732e0000000000000000000000602082015250565b60006121a4603583611ace565b91506121af82612148565b604082019050919050565b600060208201905081810360008301526121d381612197565b9050919050565b7f4552433230546f6b656e3a20676976656e20626c61636b4c697374416464726560008201527f737320697320616c726561647920626c61636b6c697374656400000000000000602082015250565b6000612236603983611ace565b9150612241826121da565b604082019050919050565b6000602082019050818103600083015261226581612229565b9050919050565b7f4552433230546f6b656e3a20676976656e20626c61636b4c697374416464726560008201527f7373206973206e6f7420696e20626c61636b6c69737400000000000000000000602082015250565b60006122c8603683611ace565b91506122d38261226c565b604082019050919050565b600060208201905081810360008301526122f7816122bb565b9050919050565b7f4552433230546f6b656e3a206e6577546f6b656e50726963652069732063616e60008201527f206e6f742062652073616d652061732063757272656e7420746f6b656e50726960208201527f63652e0000000000000000000000000000000000000000000000000000000000604082015250565b6000612380604383611ace565b915061238b826122fe565b606082019050919050565b600060208201905081810360008301526123af81612373565b9050919050565b7f45524332303a2064656372656173656420616c6c6f77616e63652062656c6f7760008201527f207a65726f000000000000000000000000000000000000000000000000000000602082015250565b6000612412602583611ace565b915061241d826123b6565b604082019050919050565b6000602082019050818103600083015261244181612405565b9050919050565b7f4f776e61626c653a206e6577206f776e657220697320746865207a65726f206160008201527f6464726573730000000000000000000000000000000000000000000000000000602082015250565b60006124a4602683611ace565b91506124af82612448565b604082019050919050565b600060208201905081810360008301526124d381612497565b9050919050565b7f4f776e61626c653a2063616c6c6572206973206e6f7420746865206f776e6572600082015250565b6000612510602083611ace565b915061251b826124da565b602082019050919050565b6000602082019050818103600083015261253f81612503565b9050919050565b7f5061757361626c653a2070617573656400000000000000000000000000000000600082015250565b600061257c601083611ace565b915061258782612546565b602082019050919050565b600060208201905081810360008301526125ab8161256f565b9050919050565b7f45524332303a206d696e7420746f20746865207a65726f206164647265737300600082015250565b60006125e8601f83611ace565b91506125f3826125b2565b602082019050919050565b60006020820190508181036000830152612617816125db565b9050919050565b7f45524332303a20617070726f76652066726f6d20746865207a65726f2061646460008201527f7265737300000000000000000000000000000000000000000000000000000000602082015250565b600061267a602483611ace565b91506126858261261e565b604082019050919050565b600060208201905081810360008301526126a98161266d565b9050919050565b7f45524332303a20617070726f766520746f20746865207a65726f20616464726560008201527f7373000000000000000000000000000000000000000000000000000000000000602082015250565b600061270c602283611ace565b9150612717826126b0565b604082019050919050565b6000602082019050818103600083015261273b816126ff565b9050919050565b7f45524332303a20696e73756666696369656e7420616c6c6f77616e6365000000600082015250565b6000612778601d83611ace565b915061278382612742565b602082019050919050565b600060208201905081810360008301526127a78161276b565b9050919050565b7f45524332303a207472616e736665722066726f6d20746865207a65726f20616460008201527f6472657373000000000000000000000000000000000000000000000000000000602082015250565b600061280a602583611ace565b9150612815826127ae565b604082019050919050565b60006020820190508181036000830152612839816127fd565b9050919050565b7f45524332303a207472616e7366657220746f20746865207a65726f206164647260008201527f6573730000000000000000000000000000000000000000000000000000000000602082015250565b600061289c602383611ace565b91506128a782612840565b604082019050919050565b600060208201905081810360008301526128cb8161288f565b9050919050565b7f45524332303a207472616e7366657220616d6f756e742065786365656473206260008201527f616c616e63650000000000000000000000000000000000000000000000000000602082015250565b600061292e602683611ace565b9150612939826128d2565b604082019050919050565b6000602082019050818103600083015261295d81612921565b9050919050565b7f5061757361626c653a206e6f7420706175736564000000000000000000000000600082015250565b600061299a601483611ace565b91506129a582612964565b602082019050919050565b600060208201905081810360008301526129c98161298d565b905091905056fea2646970667358221220d2dde61af82f9a8fca46a36c530c49b4cb1c3941575be152f4af9745389fde4964736f6c63430008110033",
  "immutableReferences": {},
  "source": "// SPDX-License-Identifier: UNLICENSED\npragma solidity ^0.8.7;\n\n/**\n* @title A ERC20Token contract\n* @author Systango team\n* @notice Serves as a fungible token\n* @dev Inherits the OpenZepplin ERC20 implentation\n */\nimport \"@openzeppelin/contracts/token/ERC20/ERC20.sol\";\nimport \"@openzeppelin/contracts/security/Pausable.sol\";\nimport \"@openzeppelin/contracts/access/Ownable.sol\";\n\nimport \"./IERC20Token.sol\";\nimport \"./BlackList.sol\";\n\ncontract ERC20Token is ERC20, Pausable, Ownable, IERC20Token, BlackList{\n    \n    /**\n        @notice Price of ERC20 Token\n     */\n    uint256 public tokenPrice;\n\n    // Zero Address\n    address constant ZERO_ADDRESS = address(0);\n\n    /**\n     * @dev Sets the values for {name}, {symbol} and {_tokenPrice}\n     * @custom:info The default value of {decimals} is 18\n     * @custom:info name and symbol values are immutable: they can only be set once during construction\n     */\n    constructor(string memory name, string memory symbol,uint256 _tokenPrice) \n        ERC20(name, symbol) \n    {\n        tokenPrice = _tokenPrice;\n    }\n\n    /**\n    * @dev This is the mint function. It is used for minting `amount` ERC20 tokens to the `to` address\n    * @dev Only non-blacklisted user can call this function\n    * @param to The address to be token minted\n    * @param amount Number of the ERC20 tokens to be minted\n    */\n    function mint(address to, uint256 amount) external payable override whenNotPaused whenNotBlackListedUser(msg.sender) whenNotBlackListedUser(to) {\n        require(to != ZERO_ADDRESS, \"ERC20Token: Cannot mint ERC20Token to Zero Address.\");\n        require(msg.value >= tokenPrice * amount,\"ERC20Token: Insufficient balance.\");\n        _mint(to, amount);\n    }\n\n    /**\n    * @notice airDrop is use to put the ERC20 tokens to given address\n    * @dev This is the airDrop function. It is used by the owner to airdrop `amount` number of ERC20 tokens to the `to` address respectively.\n    * @dev Only the owner can call this function\n    * @param to The address to be airdropped\n    * @param amount The amount of random tokens to be air dropped respectively\n    */\n    function airDrop(address to, uint256 amount) external override onlyOwner whenNotPaused{\n        require(to != ZERO_ADDRESS, \"ERC20Token: Cannot airDrop ERC20Token to Zero Address.\");\n        _mint(to, amount);\n    }\n\n    /**\n    * @notice withdraw is use to take out all the contract balance into owner account\n    * @dev This function would withdraw all the contract balance into owner's address\n    * @dev Only the owner can call this function\n    */\n    function withdraw() external override onlyOwner {\n        require(getContractBalance() > 0, \"ERC20Token: Insufficient balance\");\n        address payable _to = payable(msg.sender);\n        bool sent = _to.send(getContractBalance());\n        require(sent, \"Failed to send Ether\");\n    }\n\n    /**\n    * @notice addToBlackList is use to add the address into blacklist\n    * @dev This function would add an address to the blacklist mapping\n    * @dev Only the owner can call this function\n    * @param blackListAddress The account to be added to blacklist\n    */\n    function addToBlackList(address blackListAddress) external override onlyOwner whenNotPaused {\n        require(blackListAddress != ZERO_ADDRESS, \"ERC20Token: blackListAddress can not be Zero Address.\");\n        require(!_isBlackListUser(blackListAddress), \"ERC20Token: given blackListAddress is already blacklisted\");\n        _addToBlackList(blackListAddress);\n    \n    }\n\n    /**\n     * @notice removeFromBlackList is use to remove the blacklisted user.\n     * @dev This function would remove an address from the blacklist mapping.\n     * @dev Only the owner can call this function.\n     * @param blackListAddress The account to be removed from blacklist.\n     */\n    function removeFromBlackList(address blackListAddress) external override onlyOwner whenNotPaused {\n        require(blackListAddress != ZERO_ADDRESS, \"ERC20Token: blackListAddress can not be Zero Address.\");\n        require(_isBlackListUser(blackListAddress), \"ERC20Token: given blackListAddress is not in blacklist\");\n        _removeFromBlackList(blackListAddress);\n    }\n\n    /**\n     * @notice updateTokenPrice is use to update the token price\n     * @param newTokenPrice is updated token price in wei\n     * @dev Returns the contract balance.\n     * @dev Only the owner can call this function.\n     */\n    function updateTokenPrice(uint256 newTokenPrice) external override onlyOwner {\n        require(tokenPrice != newTokenPrice, \"ERC20Token: newTokenPrice is can not be same as current tokenPrice.\");\n        tokenPrice = newTokenPrice;\n    }\n\n    /**\n     * @notice getContractBalance is use to check contract balance\n     * @dev Returns the contract balance\n     * @return balance Contract balance in wei\n     */\n    function getContractBalance() public view returns (uint256 balance) {\n        balance = address(this).balance;\n    }\n\n    /**\n     * @dev to pause the contract.\n     * @dev Only the owner can call this function.\n     */\n    function pause() external override onlyOwner {\n        _pause();\n    }\n\n    /**\n     * @dev to unpause the contract.\n     * @dev Only the owner can call this function.\n     */\n    function unpause() external override onlyOwner {\n        _unpause();\n    }\n}\n",
  "sourcePath": "/home/ubox141/Desktop/Blockchain Work'/ERC20_BP/ERC20-BoilerPlate/contracts/ERC20Token.sol",
  "compiler": {
    "name": "solc",
    "version": "0.8.17+commit.8df45f5f.Emscripten.clang"
  },
  "schemaVersion": "3.4.10",
  "updatedAt": "2022-10-18T07:40:49.690Z",
  "networkType": "ethereum",
  "devdoc": {
    "kind": "dev",
    "methods": {
      "addToBlackList(address)": {
        "details": "This function would add an address to the blacklist mappingOnly the owner can call this function",
        "params": {
          "blackListAddress": "The account to be added to blacklist"
        }
      },
      "airDrop(address,uint256)": {
        "details": "This is the airDrop function. It is used by the owner to airdrop `amount` number of ERC20 tokens to the `to` address respectively.Only the owner can call this function",
        "params": {
          "amount": "The amount of random tokens to be air dropped respectively",
          "to": "The address to be airdropped"
        }
      },
      "allowance(address,address)": {
        "details": "See {IERC20-allowance}."
      },
      "approve(address,uint256)": {
        "details": "See {IERC20-approve}. NOTE: If `amount` is the maximum `uint256`, the allowance is not updated on `transferFrom`. This is semantically equivalent to an infinite approval. Requirements: - `spender` cannot be the zero address."
      },
      "balanceOf(address)": {
        "details": "See {IERC20-balanceOf}."
      },
      "constructor": {
        "custom:info": "The default value of {decimals} is 18name and symbol values are immutable: they can only be set once during construction",
        "details": "Sets the values for {name}, {symbol} and {_tokenPrice}"
      },
      "decimals()": {
        "details": "Returns the number of decimals used to get its user representation. For example, if `decimals` equals `2`, a balance of `505` tokens should be displayed to a user as `5.05` (`505 / 10 ** 2`). Tokens usually opt for a value of 18, imitating the relationship between Ether and Wei. This is the value {ERC20} uses, unless this function is overridden; NOTE: This information is only used for _display_ purposes: it in no way affects any of the arithmetic of the contract, including {IERC20-balanceOf} and {IERC20-transfer}."
      },
      "decreaseAllowance(address,uint256)": {
        "details": "Atomically decreases the allowance granted to `spender` by the caller. This is an alternative to {approve} that can be used as a mitigation for problems described in {IERC20-approve}. Emits an {Approval} event indicating the updated allowance. Requirements: - `spender` cannot be the zero address. - `spender` must have allowance for the caller of at least `subtractedValue`."
      },
      "getContractBalance()": {
        "details": "Returns the contract balance",
        "returns": {
          "balance": "Contract balance in wei"
        }
      },
      "increaseAllowance(address,uint256)": {
        "details": "Atomically increases the allowance granted to `spender` by the caller. This is an alternative to {approve} that can be used as a mitigation for problems described in {IERC20-approve}. Emits an {Approval} event indicating the updated allowance. Requirements: - `spender` cannot be the zero address."
      },
      "mint(address,uint256)": {
        "details": "This is the mint function. It is used for minting `amount` ERC20 tokens to the `to` addressOnly non-blacklisted user can call this function",
        "params": {
          "amount": "Number of the ERC20 tokens to be minted",
          "to": "The address to be token minted"
        }
      },
      "name()": {
        "details": "Returns the name of the token."
      },
      "owner()": {
        "details": "Returns the address of the current owner."
      },
      "pause()": {
        "details": "to pause the contract.Only the owner can call this function."
      },
      "paused()": {
        "details": "Returns true if the contract is paused, and false otherwise."
      },
      "removeFromBlackList(address)": {
        "details": "This function would remove an address from the blacklist mapping.Only the owner can call this function.",
        "params": {
          "blackListAddress": "The account to be removed from blacklist."
        }
      },
      "renounceOwnership()": {
        "details": "Leaves the contract without owner. It will not be possible to call `onlyOwner` functions anymore. Can only be called by the current owner. NOTE: Renouncing ownership will leave the contract without an owner, thereby removing any functionality that is only available to the owner."
      },
      "symbol()": {
        "details": "Returns the symbol of the token, usually a shorter version of the name."
      },
      "totalSupply()": {
        "details": "See {IERC20-totalSupply}."
      },
      "transfer(address,uint256)": {
        "details": "See {IERC20-transfer}. Requirements: - `to` cannot be the zero address. - the caller must have a balance of at least `amount`."
      },
      "transferFrom(address,address,uint256)": {
        "details": "See {IERC20-transferFrom}. Emits an {Approval} event indicating the updated allowance. This is not required by the EIP. See the note at the beginning of {ERC20}. NOTE: Does not update the allowance if the current allowance is the maximum `uint256`. Requirements: - `from` and `to` cannot be the zero address. - `from` must have a balance of at least `amount`. - the caller must have allowance for ``from``'s tokens of at least `amount`."
      },
      "transferOwnership(address)": {
        "details": "Transfers ownership of the contract to a new account (`newOwner`). Can only be called by the current owner."
      },
      "unpause()": {
        "details": "to unpause the contract.Only the owner can call this function."
      },
      "updateTokenPrice(uint256)": {
        "details": "Returns the contract balance.Only the owner can call this function.",
        "params": {
          "newTokenPrice": "is updated token price in wei"
        }
      },
      "withdraw()": {
        "details": "This function would withdraw all the contract balance into owner's addressOnly the owner can call this function"
      }
    },
    "version": 1
  },
  "userdoc": {
    "events": {
      "AddedToBlackList(address)": {
        "notice": "Event to trigger the addition of address to blacklist mapping "
      },
      "RemovedFromBlackList(address)": {
        "notice": "Event to trigger the removal of address from blacklist mapping "
      }
    },
    "kind": "user",
    "methods": {
      "addToBlackList(address)": {
        "notice": "addToBlackList is use to add the address into blacklist"
      },
      "airDrop(address,uint256)": {
        "notice": "airDrop is use to put the ERC20 tokens to given address"
      },
      "blackList(address)": {
        "notice": "Mapping between the address and boolean for blacklisting "
      },
      "getContractBalance()": {
        "notice": "getContractBalance is use to check contract balance"
      },
      "removeFromBlackList(address)": {
        "notice": "removeFromBlackList is use to remove the blacklisted user."
      },
      "tokenPrice()": {
        "notice": "Price of ERC20 Token"
      },
      "updateTokenPrice(uint256)": {
        "notice": "updateTokenPrice is use to update the token price"
      },
      "withdraw()": {
        "notice": "withdraw is use to take out all the contract balance into owner account"
      }
    },
    "version": 1
  }
}